S016000050726F6A656B7453616D6C6564652E7372656374
S1130000F2C0000010C100000EC100000CC10000CD
S11300100AC1000008C1000006C1000004C10000BC
S113002002C1000000C10000FEC00000FCC00000CE
S1130030FAC00000F8C00000F6C00000F4C00000E0
S1130040F2C00000F0C00000EEC00000ECC00000F0
S1130050EAC00000E8C00000E6C00000E4C0000000
S1130060E2C00000E0C00000DEC00000DCC0000010
S1130070DAC00000D8C00000D6C00000D4C0000020
S1130080D2C00000D0C00000CEC00000CCC0000030
S1130090CAC00000C8C00000C6C00000C4C0000040
S11300A0C2C00000C0C00000BEC00000BCC0000050
S11300B0BAC00000B8C00000B6C00000B4C0000060
S11300C0B2C00000B0C00000AEC00000ACC0000070
S11300D0AAC00000A8C00000A6C00000A4C0000080
S11300E0A2C000006E616E00696E660000407A1066
S11300F0F35A00A0724E18090010A5D4E80000E8D5
S11301007648170000E40B54020000CA9A3B000032
S113011000E1F505000080969800000040420F00C1
S11301200000A08601000000102700000000E80382
S1130130000000006400000000000A00000000004D
S11301400100000000002C76D888DC674F0823DF0C
S1130150C1DFAE59E1B1B796E5E3E453C63AE651DF
S1130160997696E8E6C28426EB898C9B62ED407C06
S11301706FFCEFBC9C9F40F2BAA56FA5F490055AA2
S11301802AF75C936B6CF9676DC11BFCE0E40D47C7
S1130190FEF520E6B500D0ED902E030094357705EA
S11301A00080841E080000204E0A000000C80C33A2
S11301B03333330F986E12831141EF8D2114893B31
S11301C0E65516CFFEE6DB18D1844B381BF77C1DB1
S11301D0901DA4BBE424203284725E228100C9F104
S11301E024ECA1E53D2711241FBECFEFD1E2DEBFF1
S11301F0CDBF00E00CBF12E0A0E0B2E0EAE0FDE118
S113020000E00BBF02C007900D92AA38B107D9F7DE
S113021022E0AAE8B2E001C01D92AA3BB207E1F7CE
S113022003D00C94830EECCECF93DF93CDB7DEB71F
S113023060970FB6F894DEBF0FBECDBF45D01982CC
S11302401A821B821C821D821E821F8218861986B6
S11302501A861B861C861E861D8660E070E088E474
S113026092E497D57ED19E012F5F3F4FAE01475F49
S11302705F4FBE016B5F7F4FCE010F9631D08E0171
S1130280035F1F4F9E012F5F3F4FAE01475F5F4FDC
S1130290BE016B5F7F4FCE010F963FD09E012F5F53
S11302A03F4FAE01475F5F4FBE016B5F7F4FCE0193
S11302B00F9697D02FEF87EA91E621508040904027
S11302C0E1F700C00000CFCF0CD540D24ED12ED1E3
S11302D021E048E060E875E280E090E004C308951E
S11302E0CF92DF92EF92FF920F931F93CF93DF93FE
S11302F06C018B017A01E9014BD1F6019183808372
S1130300A701B801CE012AD2DF91CF911F910F919D
S1130310FF90EF90DF90CF9008954F925F926F928D
S11303207F92AF92BF92CF92DF92EF92FF920F93A0
S11303301F93CF93DF936C01EB017A01590148803D
S113034059806A807B8020E030E040E450E4609192
S113035000027091010280910202909103026ED515
S11303609B01AC01C301B201DFD61816C4F0F7013A
S1130370608171818281938120E030E040E752E422
S1130380D3D6181664F0F50160817181828193815E
S113039020E030E04AE754E4C7D6181614F4DDD060
S11303A001C0DFD080910402882339F0F6018081F6
S11303B0918102D1F80191838083688179818A8156
S11303C09B81FBD4DF91CF911F910F91FF90EF9010
S11303D0DF90CF90BF90AF907F906F905F904F90E1
S11303E008956F927F928F929F92AF92BF92CF9215
S11303F0DF92EF92FF920F931F93CF93DF93CDB7CA
S1130400DEB764970FB6F894DEBF0FBECDBF4C01C4
S11304107B013A0159018DE192E0CCD28DE292E068
S1130420C9D2F70183818F9382818F9381818F93C6
S113043080818F930F2EF4E3CF2EF2E0DF2EF02D88
S1130440DF92CF92CE0101967C019F938F930E94FD
S1130450F70DC701AFD287E392E0ACD2F4018181FA
S11304608F9380818F930F2EF7E58F2EF2E09F2ECE
S1130470F02D9F928F92FF92EF920E94F70DC70189
S113048099D28AE592E096D2F80181818F93808196
S11304908F939F928F92FF92EF920E94F70DC70164
S11304A089D28BE692E086D2F50183818F93828193
S11304B08F9381818F9380818F93DF92CF92FF926C
S11304C0EF920E94F70DC70175D281E792E072D2D4
S11304D0F30183818F9382818F9381818F938081B4
S11304E08F93DF92CF92FF92EF920E94F70D0FB697
S11304F0F894DEBF0FBECDBFC7015CD28CE792E09B
S113050059D264960FB6F894DEBF0FBECDBFDF910B
S1130510CF911F910F91FF90EF90DF90CF90BF90FC
S1130520AF909F908F907F906F90089584B1806476
S113053084B982E2809380008AE18093810080E420
S11305409CE990938700809386000895880F991FF3
S113055090938B0080938A00089588E097E0F6CF0B
S1130560089588EE93E0F2CF089580E480937C00B0
S113057087E880937A0084B1806184B983E88093AA
S1130580B00082E08093B10080E88093B3000895C6
S1130590ECE7F0E08081887F84608083EAE7F0E024
S11305A080818064808380917A0086FDFCCF809175
S11305B078009091790008959C01992314F420E027
S11305C030E0293E83E0380714F028EE33E04FEFA3
S11305D0429FC001439F900D112468EE73E00E9476
S11305E0840C6093B300C9016AE070E00E94840C3B
S11305F0CB01089588E48093B8001092B90008955F
S113060084EA8093BC008091BC008823E4F70895B9
S113061084E98093BC008091BC0084FDFCCF0895E4
S11306208093BB0084E88093BC008091BC00882345
S1130630E4F7089584EC8093BC008091BC00882387
S1130640E4F78091BB00089584E88093BC00809116
S1130650BC008823E4F78091BB000895AC0130E02E
S11306608FEF14C0FA01E30FF11D9081892720E078
S11306700AC0882334F490E0880F991F91E38927F6
S113068001C0880F2F5F2830A0F33F5F323050F352
S11306900895DF92EF92FF920F931F93CF93DF930E
S11306A01F921F92CDB7DEB7082FF92ED62EE72E54
S11306B0142FA6DF82ECB4DF8F2DB2DF802FB0DFE2
S11306C0112351F0E982DA828E2DAADF8A81A8DF14
S11306D0CE010196C3DFA4DF9BDF0F900F90DF9163
S11306E0CF911F910F91FF90EF90DF900895CF93DA
S11306F0DF9300D0CDB7DEB740E060E070E082E089
S113070092E0C7DF7DDF83EC8BDF94DF898392DFA8
S11307108A839ADF8B837CDFCE0101969FDF9B81E6
S113072089130CC0898190E0982F88272A81822B15
S11307308130910529F080E090E002C080E090E0F3
S11307400F900F900F90DF91CF91089553DF41E008
S113075060E070E080E190E09CCF08954F925F925A
S11307606F927F928F929F92AF92BF92CF92DF92BD
S1130770EF92FF920F931F93CF93DF93CDB7DEB722
S113078062970FB6F894DEBF0FBECDBF4C015B017C
S11307906A01ADDF882309F48FC040E060E070E0B7
S11307A080E093E076DF2CDF83EC3ADF10E00FC0CB
S11307B0E12EF12C113111F447DF01C03BDFE1E000
S11307C0F0E0EC0FFD1FEE0DFF1D80831F5F123163
S11307D078F31EDF4980512C612C712C742C662413
S11307E0552444248A8190E0A0E0B0E0DC019927FC
S11307F08827482A592A6A2A7B2A8C8190E0A0E01B
S1130800B0E0BA2FA92F982F8827482A592A6A2A94
S11308107B2A8D81482A0F8110E020E030E0302FC0
S1130820222711270027888590E0A0E0B0E0DC01B2
S113083099278827082B192B2A2B3B2B8A8590E094
S1130840A0E0B0E0BA2FA92F982F8827082B192BE6
S11308502A2B3B2B8B85082B8D8590E0A0E0B0E004
S1130860782F6627552744278E8590E0A0E0B0E0D6
S1130870DC0199278827842B952BA62BB72B488935
S113088050E060E070E0762F652F542F4427842BCE
S1130890952BA62BB72B4989842BF40140825182D6
S11308A062827382F5010083118322833383F6010C
S11308B080839183A283B38362960FB6F894DEBFDC
S11308C00FBECDBFDF91CF911F910F91FF90EF909D
S11308D0DF90CF90BF90AF909F908F907F906F905C
S11308E05F904F900895CF92DF92EF92FF92CF9353
S11308F06B017C01C42FDC01CB018C529140A10916
S1130900B109843D904CA140B10508F046C0453082
S113091008F443C0493008F040C0222329F07894F9
S113092088E98093C10003C088E18093C10060E43A
S113093072E48FE090E0A7019601F9D721503109C4
S11309403093C5002093C400E2ECF0E086E080839D
S11309501082808182608083C63071F018F4C530C3
S113096031F01BC0C73071F0C83091F016C0E2EC12
S1130970F0E08081808311C0E2ECF0E0808182604D
S113098080830BC0E2ECF0E080818460808305C04A
S1130990E2ECF0E0808186608083CF91FF90EF905D
S11309A0DF90CF9008959091C00095FFFCCF809385
S11309B0C6000895CF93DF93EC0102C02196F3DFC4
S11309C088818111FBCFDF91CF910895AF92BF92BF
S11309D0CF92DF92EF92FF920F931F93CF93DF9307
S11309E0CDB7DEB76093A6027093A7028093A802E6
S11309F09093A9022093A2023093A3024093A402ED
S1130A005093A502E0929E02F0929F020093A002EE
S1130A101093A102A0929602B0929702C0929802FB
S1130A20D09299028E859F85A889B9898093920274
S1130A3090939302A0939402B09395028A899B8920
S1130A40AC89BD8980939A0290939B02A0939C02E7
S1130A50B0939D02DF91CF911F910F91FF90EF9082
S1130A60DF90CF90BF90AF9008956093050270938C
S1130A700602809307029093080208952F923F92F2
S1130A804F925F926F927F928F929F92AF92BF929A
S1130A90CF92DF92EF92FF920F931F93CF93DF9346
S1130AA0CDB7DEB72A970FB6F894DEBF0FBECDBF21
S1130AB06B017C015A874987190160910502709185
S1130AC006028091070290910802A7019601B5D110
S1130AD06B017C0180909A0290909B02A0909C02F2
S1130AE0B0909D02A501940123D320918E023091F0
S1130AF08F024091900250919102A0D160938E0296
S1130B0070938F028093900290939102409096028A
S1130B10509097026090980270909902A3019201FC
S1130B2003D3181644F440928E0250928F026092BE
S1130B3090027092910260918E0270918F02809166
S1130B409002909191024090920250909302609092
S1130B50940270909502A3019201D4D1882344F4A5
S1130B6040928E0250928F02609290027092910293
S1130B7020918A0230918B0240918C0250918D0217
S1130B80C701B6015AD1A5019401C0D12B013C0182
S1130B902091A6023091A7024091A8025091A90287
S1130BA0C701B601C5D269837A838B839C83209164
S1130BB0A2023091A3024091A4025091A502609137
S1130BC08E0270918F028091900290919102B0D226
S1130BD04B015C019B01AC0169817A818B819C8111
S1130BE02DD16D837E838F83988720919E023091CF
S1130BF09F024091A0025091A102C301B20198D278
S1130C002B013C019B01AC016D817E818F81988514
S1130C1015D129813A814B815C81E985FA8520834C
S1130C20318342835383F10180829182A282B38211
S1130C30F8014082518262827382C0928A02D09209
S1130C408B02E0928C02F0928D022A960FB6F894F1
S1130C50DEBF0FBECDBFDF91CF911F910F91FF90EB
S1130C60EF90DF90CF90BF90AF909F908F907F9048
S1130C706F905F904F903F902F900895E0E9F0E0DF
S1130C80808183688083E1E9F0E080818B618083E7
S1130C9088EC90E0909397008093960010929900CE
S1130CA0109298008DB188608DB9089585369105AC
S1130CB038F4880F991F90939900809398000895B1
S1130CC0853691053CF088EC90E0909399008093F0
S1130CD098000895992324F4109299001092980092
S1130CE00895AF92BF92CF92DF92EF92FF920F934B
S1130CF01F93C4DFA0901102B0901202C09013029F
S1130D00D0901402E090AE02F090AF020091B002D5
S1130D101091B102209115023091160240911702F0
S1130D20509118026091190270911A0280911B026D
S1130D3090911C02EEE3EF93EAEAEF93EEE7EF9370
S1130D40EAEFEF93E0911002EF93E0910F02EF933B
S1130D50E0910E02EF93E0910D02EF9337DE609184
S1130D60090270910A0280910B0290910C027DDEBF
S1130D708DB79EB708960FB6F8949EBF0FBE8DBF71
S1130D801F910F91FF90EF90DF90CF90BF90AF90A5
S1130D900895CF92DF92EF92FF926B017C0165DEA2
S1130DA0C0920902D0920A02E0920B02F0920C0265
S1130DB0FF90EF90DF90CF9008950F931F93CF9300
S1130DC0DF93CDB7DEB72C970FB6F894DEBF0FBE16
S1130DD0CDBF6093B6027093B7028093B80290932C
S1130DE0B90219821A821B821C821D821E821F82F2
S1130DF0188619861A861B861C868E01075F1F4F6C
S1130E009E012B5F3F4FAE014F5F5F4F37DE609314
S1130E10AA027093AB028093AC029093AD02DED031
S1130E20CB0144DF2C960FB6F894DEBF0FBECDBFC6
S1130E30DF91CF911F910F9108955058BB27AA2796
S1130E400ED038C129D130F02ED120F031F49F3F9B
S1130E5011F41EF41EC10EF4E095E7FB14C1E92F52
S1130E603AD180F3BA17620773078407950718F01D
S1130E7071F49EF552C10EF4E0950B2EBA2FA02DFD
S1130E800B01B90190010C01CA01A0011124FF2733
S1130E90591B99F0593F50F4503E68F11A16F0402E
S1130EA0A22F232F342F4427585FF3CF469537952D
S1130EB02795A795F0405395C9F77EF41F16BA0BF2
S1130EC0620B730B840BBAF09150A1F0FF0FBB1FA0
S1130ED0661F771F881FC2F70EC0BA0F621F731FE9
S1130EE0841F48F4879577956795B795F7959E3F46
S1130EF008F0B3CF9395880F08F09927EE0F9795D4
S1130F00879508959CD008F481E008950CD0D2C050
S1130F10CAD040F0C1D030F021F45F3F19F0B3C023
S1130F205111FCC0B6C0D7D098F39923C9F3552307
S1130F30B1F3951B550BBB27AA27621773078407C8
S1130F4038F09F5F5F4F220F331F441FAA1FA9F37E
S1130F5033D00E2E3AF0E0E830D091505040E69570
S1130F60001CCAF729D0FE2F27D0660F771F881FD1
S1130F70BB1F261737074807AB07B0E809F0BB0BC0
S1130F80802DBF01FF2793585F4F2AF09E3F5105E4
S1130F9068F079C0C3C05F3FECF3983EDCF38695FC
S1130FA077956795B795F7959F5FC9F7880F911D5A
S1130FB09695879597F90895E1E0660F771F881F46
S1130FC0BB1F621773078407BA0720F0621B730BF9
S1130FD0840BBA0BEE1F88F7E095089504D068944B
S1130FE0B1119CC008957FD088F09F5790F0B92F1D
S1130FF09927B751A0F0D1F0660F771F881F991F6A
S11310001AF0BA95C9F712C0B13081F086D0B1E0B8
S1131010089583C0672F782F8827B85F39F0B93FC8
S1131020CCF3869577956795B395D9F73EF490956B
S11310308095709561957F4F8F4F9F4F0895990FBD
S11310400008550FAA0BE0E8FEEF16161706E8078E
S1131050F907C0F012161306E407F50798F0621BAF
S1131060730B840B950B39F40A2661F0232B242B84
S1131070252B21F408950A2609F4A140A6958FEFA3
S1131080811D811D089597F99F6780E870E060E0F5
S113109008959FEF80EC089500240A94161617060D
S11310A018060906089500240A9412161306140655
S11310B005060895092E0394000C11F4882352F0B8
S11310C0BB0F40F4BF2B11F460FF04C06F5F7F4F70
S11310D08F4F9F4F089557FD9058440F551F59F057
S11310E05F3F71F04795880F97FB991F61F09F3F11
S11310F079F087950895121613061406551FF2CF3A
S11311004695F1DF08C0161617061806991FF1CF89
S113111086957105610508940895E894BB276627B0
S11311207727CB0197F908958ADF08F48FEF0895A4
S11311300BD0C0CFB1DF28F0B6DF18F0952309F04B
S1131140A2CFA7CF1124EACFC6DFA0F3959FD1F396
S1131150950F50E0551F629FF001729FBB27F00D61
S1131160B11D639FAA27F00DB11DAA1F649F6627B6
S1131170B00DA11D661F829F2227B00DA11D621F05
S1131180739FB00DA11D621F839FA00D611D221FBF
S1131190749F3327A00D611D231F849F600D211DA3
S11311A0822F762F6A2F11249F5750408AF0E1F046
S11311B088234AF0EE0FFF1FBB1F661F771F881F8F
S11311C091505040A9F79E3F510570F05CCFA6CFD7
S11311D05F3FECF3983EDCF3869577956795B7957A
S11311E0F795E7959F5FC1F7FE2B880F911D9695A4
S11311F0879597F908952F923F924F925F926F923D
S11312007F928F929F92AF92BF92CF92DF92EF9292
S1131210FF920F931F93CF93DF93CDB7DEB7609701
S11312200FB6F894DEBF0FBECDBF7C011B016A016F
S1131230FC0117821682838181FF2AC39E012F5FDE
S11312403F4F3901F7019381F10193FD859193FF9C
S113125081911F01882309F417C3853239F493FD62
S1131260859193FF81911F01853231F4B70190E09C
S113127082D456016501E6CF10E0512C912CFFE198
S1131280F915D8F08B3279F038F4803279F0833262
S1131290A1F4F92DF0612EC08D3261F0803369F430
S11312A0292D21602DC0392D3260932E892D846023
S11312B0982E2AC0E92DE86015C097FC2DC020EDBA
S11312C0280F2A3088F496FE06C03AE0139F200DBA
S11312D01124122F19C08AE0589E200D1124522E79
S11312E0E92DE0629E2E10C08E3231F496FCCCC201
S11312F0F92DF0649F2E08C08C3621F4292D206826
S1131300922E02C0883641F4F10193FD859193FF3A
S113131081911F018111B3CF9BEB980F933020F47F
S1131320992D9061805E07C09BE9980F933008F077
S113133059C1992D9F7E96FF16E09F73992E85368D
S113134019F49064992E08C0863621F4392F306838
S1131350932E02C01111115097FE07C01C3350F494
S113136044244394410E27E00BC0183038F027E0A2
S113137017E005C027E09CE3492E02C0212F412C31
S1131380560184E0A80EB11CF6016081718182814E
S11313909381042DA30101D36C01F981FC87F0FF33
S11313A002C0F3FF06C091FC06C092FE06C000E234
S11313B005C00DE203C00BE201C000E08C858C7017
S11313C019F0011143C280C297FE10C04C0CFC8579
S11313D0F4FF04C08A81813309F44A94141474F527
S11313E028E0241578F588E0482E2CC096FC2AC005
S11313F0812F90E08C159D059CF03CEFC3163FEFC8
S1131400D30674F0892D8068982E0AC0E2E0F0E0DB
S1131410EC0FFD1FE10FF11D8081803319F4115091
S11314201111F4CF97FE0EC044244394410E812F32
S113143090E0C816D9062CF41C1904C04424439423
S113144001C010E097FE06C01C141D0434F4C6014C
S1131450019605C085E090E002C081E090E00111B2
S11314600196112331F0212F30E02F5F3F4F820F7F
S1131470931F252D30E08217930714F4581A01C0E6
S1131480512C892D897041F4552031F0B70180E247
S113149090E071D35A94F8CF002321F0B701802F44
S11314A090E069D393FC08C0552031F0B70180E384
S11314B090E061D35A94F8CF97FE4AC04601D7FE14
S11314C002C0812C912CC60188199909F301E80FF7
S11314D0F91FFE87ED87960124193109388B2F8770
S11314E0012F10E01195019511093FEF8316930622
S11314F021F4B7018EE290E03ED3C814D9044CF035
S11315008F8598898815990524F4ED85FE85818158
S113151001C080E3F1E08F1A91082D853E852F5F8D
S11315203F4F3E872D878016910624F0B70190E047
S113153022D3DBCFC814D90441F49A81963320F422
S1131540953319F43C8534FF81E3B70190E048C03A
S11315508A81813319F09C859F7E9C87B70190E036
S11315600AD3111105C094FC16C085E690E015C09D
S1131570B7018EE290E0FFD21E5F82E001E0080F27
S1131580F301E80FF11D8081B70190E0F4D2802FC0
S11315900113F4CFE8CF85E490E0B701ECD2D7FC97
S11315A006C0C114D10441F4EC85E4FF05C0D19414
S11315B0C194D1088DE201C08BE2B70190E0DBD287
S11315C080E32AE0C216D1042CF08F5FFAE0CF1A30
S11315D0D108F7CFB70190E0CED2B701C601C096CB
S11315E0CAD249C1833631F0833779F0833509F0A3
S11315F052C01FC0560132E0A30EB11CF601808117
S1131600898301E010E0630111C05601F2E0AF0EDE
S1131610B11CF601C080D18096FE03C0612F70E03A
S113162002C06FEF7FEFC6019BD28C01F92DFF77CB
S113163013C0560122E0A20EB11CF601C080D18075
S113164096FE03C0612F70E002C06FEF7FEFC6010A
S11316507CD28C01F92DF0689F2EF3FD18C0852DE6
S113166090E00817190798F4B70180E290E083D25C
S11316705A94F5CFF60197FC859197FE81916F01FD
S1131680B70190E078D251105A9401501109011514
S1131690110581F7F0C0843611F0893659F55601E9
S11316A097FE09C024E0A20EB11CF601608171818D
S11316B0828193810AC0F2E0AF0EB11CF601608111
S11316C07181072E000C880B990BF92DFF769F2E44
S11316D097FF09C090958095709561957F4F8F4FC6
S11316E09F4FF0689F2E2AE030E0A301AED2C82EAF
S11316F0C6183EC0092D853721F40F7E2AE030E05C
S11317001DC0097F8F3691F018F4883559F0BCC09C
S1131710803719F0883711F0B7C0006104FF09C0A1
S1131720046007C094FE08C0066006C028E030E0EC
S113173005C020E130E002C020E132E0560107FF9D
S113174009C084E0A80EB11CF60160817181828118
S1131750938108C0F2E0AF0EB11CF6016081718183
S113176080E090E0A30171D2C82EC6180F77902EA6
S113177096FE0BC0092D0E7FC11650F494FE0AC0CC
S113178092FC08C0092D0E7E05C0DC2C092D03C077
S1131790DC2C01C0D12E04FF0DC0FE01EC0DF11DA7
S11317A08081803311F4097E09C002FF06C0D394FE
S11317B0D39404C0802F867809F0D39403FD10C01D
S11317C000FF06C01C2DD51478F4150D1D190CC08E
S11317D0D51450F4B70180E290E0CDD1D394F8CF82
S11317E0D51410F45D1801C0512C04FF0FC0B701CB
S11317F080E390E0C0D102FF16C001FD03C088E77A
S113180090E002C088E590E0B7010CC0802F867894
S113181051F001FF02C08BE201C080E207FD8DE2BE
S1131820B70190E0A8D1C11630F4B70180E390E08D
S1131830A2D11150F8CFCA94F301EC0DF11D8081AF
S1131840B70190E098D1C110F6CF15C0F4E0F515BA
S113185050F584E0581A93FE1EC0011125C02C8552
S113186023FF27C004EE10E0392D3071932EF801C8
S11318708491811121C0552009F4FCCCB70180E288
S113188090E079D15A94F7CFF7018681978123C0EC
S11318908FEF9FEF20C0B70180E290E06CD15A94A3
S11318A05110F9CFDACF512CB701802F90E063D1DA
S11318B0D6CF08EE10E0D8CF91108052B70190E057
S11318C05AD10F5F1F4FD3CF23E0251510F483E0C7
S11318D0C1CF512CC4CF60960FB6F894DEBF0FBEB3
S11318E0CDBFDF91CF911F910F91FF90EF90DF90CB
S11318F0CF90BF90AF909F908F907F906F905F90AC
S11319004F903F902F90089597FB072E16F4009464
S113191006D077FD08D02DD007FC05D03EF4909575
S113192081959F4F0895709561957F4F0895A1E229
S11319301A2EAA1BBB1BFD010DC0AA1FBB1FEE1F45
S1131940FF1FA217B307E407F50720F0A21BB30B90
S1131950E40BF50B661F771F881F991F1A9469F70C
S113196060957095809590959B01AC01BD01CF0168
S11319700895AA1BBB1B51E107C0AA1FBB1FA617D2
S1131980B70710F0A61BB70B881F991F5A95A9F724
S113199080959095BC01CD010895283008F027E08A
S11319A03327DA01990F311D87FD91600096610597
S11319B0710539F432602E5F3D9330E32A95E1F7E7
S11319C008959F3F30F080387105610509F03C5F50
S11319D03C5F3D93913008F08068911DDF93CF9375
S11319E01F930F93FF92EF92192F987F9695E92FEB
S11319F096959695E90FFF27EA5BFE4F99273327C3
S1131A00EE24FF24A701E70105900894079428F425
S1131A10360FE71EF81E491F511D660F771F881FDA
S1131A20991F0694A1F70590079428F4E70EF81E71
S1131A30491F561FC11D770F881F991F661F0694E3
S1131A40A1F70590079428F4F80E491F561FC71FE5
S1131A50D11D880F991F661F771F0694A1F7059063
S1131A60079420F4490F561FC71FD81F990F661FEC
S1131A70771F881F0694A9F784911095177041F079
S1131A80D695C79557954795F794E7941A95C1F756
S1131A90ECEEF0E06894159015913591659195916F
S1131AA005907FE27395E118F10A430B560BC90BBD
S1131AB0D009C0F7E10CF11E431F561FC91FD01DEA
S1131AC07EF4703311F48A95E6CFE894015030F037
S1131AD0080F0AF40027021708F4202F2395022F79
S1131AE07A3328F079E37D932A95E9F710C07D9342
S1131AF02A9589F6069497956795379517951794BF
S1131B00E118F10A430B560BC90BD00998F0239541
S1131B107E9173957A3308F070E37C932013B8F7C1
S1131B207E9170617D9330F0839571E37D9370E3D2
S1131B302A95E1F71124EF90FF900F911F91CF9117
S1131B40DF91992787FD90950895FC0105906150D8
S1131B5070400110D8F7809590958E0F9F1F0895BF
S1131B60FC016150704001900110D8F78095909568
S1131B708E0F9F1F08950F931F93CF93DF93FB0145
S1131B80238121FD03C08FEF9FEF2CC022FF16C0DD
S1131B9046815781248135814217530744F4A0813B
S1131BA0B1819D012F5F3F4F318320838C93268128
S1131BB037812F5F3F4F3783268314C08B01EC019D
S1131BC0FB010084F185E02D1995892BE1F6D801FC
S1131BD016968D919C911797019617969C938E93C8
S1131BE01697CE01DF91CF911F910F9108950F9316
S1131BF01F93CF93DF93CDB7DEB72E970FB6F8942C
S1131C00DEBF0FBECDBF0E891F8986E08C831A8389
S1131C1009838FEF9FE79E838D83AE01465E5F4FFE
S1131C20688D798DCE010196E6DAEF81F885E00FB3
S1131C30F11F10822E960FB6F894DEBF0FBECDBFF3
S1131C40DF91CF911F910F910895FA01AA272830AF
S1131C5051F1203181F1E8946F936E7F6E5F7F4F75
S1131C608F4F9F4FAF4FB1E03ED0B4E03CD0670FF1
S1131C70781F891F9A1FA11D680F791F8A1F911D44
S1131C80A11D6A0F711D811D911DA11D20D009F494
S1131C9068943F912AE0269F11243019305D3193D6
S1131CA0DEF6CF010895462F4770405D4193B3E0BF
S1131CB00FD0C9F7F6CF462F4F70405D4A3318F066
S1131CC0495D31FD4052419302D0A9F7EACFB4E017
S1131CD0A6959795879577956795BA95C9F70097CF
S1131CE06105710508959B01AC010A2E0694579570
S1131CF0479537952795BA95C9F7620F731F841FC7
S10D1D00951FA01D0895F894FFCF6D
S1131D0A00004842010000F0410000484200803BC4
S1131D1AC500803B458988883C0000C0400A52457A
S1131D2A4144494E472053544152540A000A5465C7
S1131D3A6D700A002566000A4C696768742052654A
S1131D4A6164696E67207C206C6F77203D20627223
S1131D5A69676874200A002564000A4C45442042D5
S1131D6A72696768746E6573730A000A436F320A8C
S1131D7A000A48756D69646974790A000A52454112
S10D1D8A44494E4720454E440A0028
S9030000FC
