:10000000F2C0000010C100000EC100000CC10000D1
:100010000AC1000008C1000006C1000004C10000C0
:1000200002C1000000C10000FEC00000FCC00000D2
:10003000FAC00000F8C00000F6C00000F4C00000E4
:10004000F2C00000F0C00000EEC00000ECC00000F4
:10005000EAC00000E8C00000E6C00000E4C0000004
:10006000E2C00000E1C00000DEC00000DCC0000013
:10007000DAC00000D8C00000D6C00000D4C0000024
:10008000D2C00000D0C00000CEC00000CCC0000034
:10009000CAC00000C8C00000C6C00000C4C0000044
:1000A000C2C00000C0C00000BEC00000BCC0000054
:1000B000BAC00000B8C00000B6C00000B4C0000064
:1000C000B2C00000B0C00000AEC00000ACC0000074
:1000D000AAC00000A8C00000A6C00000A4C0000084
:1000E000A2C000006E616E00696E660000407A106A
:1000F000F35A00A0724E18090010A5D4E80000E8D9
:100100007648170000E40B54020000CA9A3B000036
:1001100000E1F505000080969800000040420F00C5
:100120000000A08601000000102700000000E80386
:10013000000000006400000000000A000000000051
:100140000100000000002C76D888DC674F0823DF10
:10015000C1DFAE59E1B1B796E5E3E453C63AE651E3
:10016000997696E8E6C28426EB898C9B62ED407C0A
:100170006FFCEFBC9C9F40F2BAA56FA5F490055AA6
:100180002AF75C936B6CF9676DC11BFCE0E40D47CB
:10019000FEF520E6B500D0ED902E030094357705EE
:1001A0000080841E080000204E0A000000C80C33A6
:1001B0003333330F986E12831141EF8D2114893B35
:1001C000E65516CFFEE6DB18D1844B381BF77C1DB5
:1001D000901DA4BBE424203284725E228100C9F108
:1001E00024ECA1E53D2711241FBECFEFD1E2DEBFF5
:1001F000CDBF00E00CBF12E0A0E0B2E0E4ECF0E222
:1002000000E00BBF02C007900D92AA38B107D9F7E2
:1002100025E0AAE8B2E001C01D92A533B207E1F7DC
:1002200069D00C946010ECCE1F920F920FB60F9213
:1002300011240BB60F920F931F932F933F934F935D
:100240005F936F937F938F939F93AF93BF93EF933E
:10025000FF938091C6008A30A1F4E0918D02F0E016
:10026000E55DFA4F10828BE295E00E94520E90936A
:100270008C0280938B0281E080938A0210928D021F
:100280000CC0E0918D02E23040F491E09E0F90931B
:100290008D02F0E0E55DFA4F80838EE192E063D459
:1002A0008BE292E060D480918B0290918C0267D4B3
:1002B00002E012E02EE832E040E052E061E072E05D
:1002C00080918B0290918C025BD0FF91EF91BF9156
:1002D000AF919F918F917F916F915F914F913F91DE
:1002E0002F911F910F910F900BBE0F900FBE0F908B
:1002F0001F901895B4D06091020270910302809112
:100300000402909105023AD604D229E932E041E98B
:1003100052E065E972E085EC94E0ADD00F2EF0E09C
:10032000AF2EF2E0BF2EF02D0F2EF2E0CF2EF2E036
:10033000DF2EF02D0F2EF1E0EF2EF2E0FF2EF02D4C
:100340000FE812E029E932E041E952E065E972E0A4
:1003500085EC94E0ADD00EE812E029E932E041E905
:1003600052E065E972E08FE892E01DD12FEF89E657
:1003700098E1215080409040E1F700C00000C5CFD7
:10038000AF92BF92CF92DF92EF92FF920F931F93A3
:10039000CF93DF93EC017B016A01590164E670E0C1
:1003A0000E94090E072E000C880B990B3FD779D7B6
:1003B0000AD76330710529F13CF46130710559F0B9
:1003C00062307105A1F040C06430710559F16530AB
:1003D000710591F139C0F701808181111082F50119
:1003E0008081882311F091D12FC093D12DC0F701C6
:1003F0008081882311F0108227C081E0F70180837B
:1004000023C0CE0164E670E00E94090EBC01990F82
:10041000880B990B0BD7F8016083718382839383D8
:10042000ADD512C0F6018081882311F010820CC076
:1004300081E0F601808308C0CE0164E670E00E948E
:10044000090E92D1F6011082DF91CF911F910F9189
:10045000FF90EF90DF90CF90BF90AF90089536D58A
:100460004DD25BD13BD121E048E060E875E280E00D
:1004700090E011C30895CF92DF92EF92FF920F9315
:100480001F93CF93DF936C018B017A01E90158D15F
:10049000F60191838083A701B801CE0137D2DF91A5
:1004A000CF911F910F91FF90EF90DF90CF90089523
:1004B0002F923F924F925F926F927F928F929F9274
:1004C000AF92BF92CF92DF92EF92FF920F931F9362
:1004D000CF93DF9300D01F92CDB7DEB74C017C8362
:1004E0006B833A013A832983F7018081882391F154
:1004F000FB012080318042805380F6016081718150
:100500006D5F7F4F072E000C880B990B8FD69B01D8
:10051000AC01C201B1018DD71816CCF0F301608196
:1005200071818281938120E030E040E752E481D7FD
:1005300018166CF0E981FA81608171818281938162
:1005400020E030E04AE754E474D7181614F4DDD004
:1005500001C0DFD0F5018081882339F0F40180816A
:10056000918102D1F80191838083EB81FC816081CC
:1005700071818281938116D50F900F900F900F900B
:10058000DF91CF911F910F91FF90EF90DF90CF906F
:10059000BF90AF909F908F907F906F905F904F90A3
:1005A0003F902F9008956F927F928F929F92AF927B
:1005B000BF92CF92DF92EF92FF920F931F93CF9350
:1005C000DF93CDB7DEB764970FB6F894DEBF0FBEEA
:1005D000CDBF4C017B016A01590138018CE392E0E7
:1005E000C2D28CE492E0BFD2F70183818F938281E3
:1005F0008F9381818F9380818F930F2EF3E5EF2E60
:10060000F2E0FF2EF02DFF92EF928E010F5F1F4F51
:100610001F930F930E94C40FC801A5D286E592E0F4
:10062000A2D2F40181818F9380818F9387E692E03B
:100630009F938F931F930F930E94C40FC80193D26F
:100640008AE692E090D2F50183818F9382818F9325
:1006500081818F9380818F93FF92EF921F930F93ED
:100660000E94C40FC8017FD280E792E07CD2F601DD
:1006700083818F9382818F9381818F9380818F93E8
:10068000FF92EF921F930F930E94C40FC8016BD289
:100690008BE792E068D20FB6F894DEBF0FBECDBFF5
:1006A000672821F081E090E06AD203C080E090E00A
:1006B00066D264960FB6F894DEBF0FBECDBFDF9151
:1006C000CF911F910F91FF90EF90DF90CF90BF904F
:1006D000AF909F908F907F906F90089584B18064C9
:1006E00084B982E2809380008AE18093810080E473
:1006F0009CE990938700809386000895880F991F46
:1007000090938B0080938A00089588E097E0F6CF5D
:10071000089588EE93E0F2CF089580E480937C0002
:1007200087E880937A0084B1806184B983E88093FC
:10073000B00082E08093B10080E88093B300089518
:10074000ECE7F0E08081887F84608083EAE7F0E076
:1007500080818064808380917A0086FDFCCF8091C7
:1007600078009091790008959C01992314F420E079
:1007700030E0293E83E0380714F028EE33E04FEFF5
:10078000429FC001439F900D112468EE73E00E94C8
:10079000090E6093B300C9016AE070E00E94090E7F
:1007A000CB01089588E48093B8001092B9000895B1
:1007B00084EA8093BC008091BC008823E4F708950C
:1007C00084E98093BC008091BC0084FDFCCF089537
:1007D0008093BB0084E88093BC008091BC00882398
:1007E000E4F7089584EC8093BC008091BC008823DA
:1007F000E4F78091BB00089584E88093BC00809169
:10080000BC008823E4F78091BB000895AC0130E080
:100810008FEF14C0FA01E30FF11D9081892720E0CA
:100820000AC0882334F490E0880F991F91E3892748
:1008300001C0880F2F5F2830A0F33F5F323050F3A4
:100840000895DF92EF92FF920F931F93CF93DF9360
:100850001F921F92CDB7DEB7082FF92ED62EE72EA6
:10086000142FA6DF82ECB4DF8F2DB2DF802FB0DF34
:10087000112351F0E982DA828E2DAADF8A81A8DF66
:10088000CE010196C3DFA4DF9BDF0F900F90DF91B5
:10089000CF911F910F91FF90EF90DF900895CF932C
:1008A000DF9300D0CDB7DEB740E060E070E082E0DB
:1008B00092E0C7DF7DDF83EC8BDF94DF898392DFFB
:1008C0008A839ADF8B837CDFCE0101969FDF9B8139
:1008D00089130CC0898190E0982F88272A81822B68
:1008E0008130910529F080E090E002C080E090E046
:1008F0000F900F900F90DF91CF91089553DF41E05B
:1009000060E070E080E190E09CCF08954F925F92AC
:100910006F927F928F929F92AF92BF92CF92DF920F
:10092000EF92FF920F931F93CF93DF93CDB7DEB774
:1009300062970FB6F894DEBF0FBECDBF4C015B01CE
:100940006A01ADDF882309F48FC040E060E070E009
:1009500080E093E076DF2CDF83EC3ADF10E00FC01D
:10096000E12EF12C113111F447DF01C03BDFE1E052
:10097000F0E0EC0FFD1FEE0DFF1D80831F5F1231B5
:1009800078F31EDF4980512C612C712C742C662465
:10099000552444248A8190E0A0E0B0E0DC0199274E
:1009A0008827482A592A6A2A7B2A8C8190E0A0E06D
:1009B000B0E0BA2FA92F982F8827482A592A6A2AE7
:1009C0007B2A8D81482A0F8110E020E030E0302F13
:1009D000222711270027888590E0A0E0B0E0DC0105
:1009E00099278827082B192B2A2B3B2B8A8590E0E7
:1009F000A0E0B0E0BA2FA92F982F8827082B192B39
:100A00002A2B3B2B8B85082B8D8590E0A0E0B0E056
:100A1000782F6627552744278E8590E0A0E0B0E028
:100A2000DC0199278827842B952BA62BB72B488987
:100A300050E060E070E0762F652F542F4427842B20
:100A4000952BA62BB72B4989842BF4014082518228
:100A500062827382F5010083118322833383F6015E
:100A600080839183A283B38362960FB6F894DEBF2E
:100A70000FBECDBFDF91CF911F910F91FF90EF90EF
:100A8000DF90CF90BF90AF909F908F907F906F90AE
:100A90005F904F900895CF92DF92EF92FF92CF93A5
:100AA0006B017C01C42FDC01CB018C529140A10968
:100AB000B109843D904CA140B10508F047C04530D4
:100AC00008F444C0493008F041C0222329F078944A
:100AD00088E98093C10003C088E18093C10060E48D
:100AE00072E48FE090E0A70196010E941C0E215055
:100AF00031093093C5002093C400E2ECF0E086E0B9
:100B000080831082808182608083C63071F018F407
:100B1000C53031F01BC0C73071F0C83091F016C03D
:100B2000E2ECF0E08081808311C0E2ECF0E08081B3
:100B3000826080830BC0E2ECF0E08081846080837F
:100B400005C0E2ECF0E0808186608083CF91FF9069
:100B5000EF90DF90CF9008959091C00095FFFCCF6B
:100B60008093C6000895CF93DF93EC0102C02196D5
:100B7000F3DF88818111FBCFDF91CF910895CF936F
:100B8000DF93CDB7DEB727970FB6F894DEBF0FBE61
:100B9000CDBF4AE0BE016F5F7F4F0E945D0FCE0167
:100BA0000196E1DF27960FB6F894DEBF0FBECDBFEA
:100BB000DF91CF910895AF92BF92CF92DF92EF92E3
:100BC000FF920F931F93CF93DF93CDB7DEB7609360
:100BD000B9027093BA028093BB029093BC02209337
:100BE000B5023093B6024093B7025093B802E09238
:100BF000B102F092B2020093B3021093B402A09239
:100C0000A902B092AA02C092AB02D092AC028E8529
:100C10009F85A889B9898093A5029093A602A09385
:100C2000A702B093A8028A899B89AC89BD89809369
:100C3000AD029093AE02A093AF02B093B002DF91E9
:100C4000CF911F910F91FF90EF90DF90CF90BF90C9
:100C5000AF90089560930602709307028093080294
:100C60009093090208952F923F924F925F926F9254
:100C70007F928F929F92AF92BF92CF92DF92EF922C
:100C8000FF920F931F93CF93DF93CDB7DEB72A97D1
:100C90000FB6F894DEBF0FBECDBF6B017C015A8743
:100CA000498719016091060270910702809108023C
:100CB00090910902A7019601B5D16B017C0180904A
:100CC000AD029090AE02A090AF02B090B002A5012C
:100CD0009401B3D32091A1023091A2024091A302CA
:100CE0005091A402A0D16093A1027093A2028093BC
:100CF000A3029093A4024090A9025090AA0260908F
:100D0000AB027090AC02A301920193D3181644F485
:100D10004092A1025092A2026092A3027092A40299
:100D20006091A1027091A2028091A3029091A4020D
:100D30004090A5025090A6026090A7027090A80271
:100D4000A3019201D4D1882344F44092A10250928D
:100D5000A2026092A3027092A40220919D0230919F
:100D60009E0240919F025091A002C701B6015AD144
:100D7000A5019401C0D12B013C012091B902309111
:100D8000BA024091BB025091BC02C701B60155D3D3
:100D900069837A838B839C832091B5023091B6025C
:100DA0004091B7025091B8026091A1027091A202E5
:100DB0008091A3029091A40240D34B015C019B015E
:100DC000AC0169817A818B819C812DD16D837E8379
:100DD0008F8398872091B1023091B2024091B30283
:100DE0005091B402C301B20128D32B013C019B01F5
:100DF000AC016D817E818F81988515D129813A81E1
:100E00004B815C81E985FA8520833183428353835A
:100E1000F10180829182A282B382F80140825182E4
:100E200062827382C0929D02D0929E02E0929F02E3
:100E3000F092A0022A960FB6F894DEBF0FBECDBF87
:100E4000DF91CF911F910F91FF90EF90DF90CF90A6
:100E5000BF90AF909F908F907F906F905F904F90DA
:100E60003F902F900895E0E9F0E0808183688083CF
:100E7000E1E9F0E080818B61808388EC90E09093E1
:100E800097008093960010929900109298008DB16F
:100E900088608DB908958536910538F4880F991FBB
:100EA00090939900809398000895853691053CF0C1
:100EB00088EC90E09093990080939800089599238E
:100EC00024F410929900109298000895AF92BF9266
:100ED000CF92DF92EF92FF920F931F93C4DFA09007
:100EE0001202B0901302C0901402D0901502E0904C
:100EF000C102F090C2020091C3021091C40220917D
:100F00001602309117024091180250911902609117
:100F10001A0270911B0280911C0290911D02EEE357
:100F2000EF93EAEAEF93EEE7EF93EAEFEF93E091C6
:100F30001102EF93E0911002EF93E0910F02EF9313
:100F4000E0910E02EF9337DE60910A0270910B027E
:100F500080910C0290910D027DDE8DB79EB70896B0
:100F60000FB6F8949EBF0FBE8DBF1F910F91FF90DB
:100F7000EF90DF90CF90BF90AF900895CF92DF9227
:100F8000EF92FF926B017C0165DEC0920A02D09263
:100F90000B02E0920C02F0920D02FF90EF90DF90B6
:100FA000CF9008950F931F93CF93DF93CDB7DEB704
:100FB0002C970FB6F894DEBF0FBECDBF609395029D
:100FC00070939602809397029093980219821A82E6
:100FD0001B821C821D821E821F82188619861A8619
:100FE0001B861C868E01075F1F4F9E012B5F3F4FA4
:100FF000AE014F5F5F4F37DE6093BD027093BE025C
:101000008093BF029093C002DED0CB0144DF2C96C8
:101010000FB6F894DEBF0FBECDBFDF91CF911F9109
:101020000F9108955058BB27AA270ED0B1C1A2D165
:1010300030F0A7D120F031F49F3F11F41EF497C196
:101040000EF4E095E7FB64C1E92FB3D180F3BA1742
:10105000620773078407950718F071F49EF5E2C1E3
:101060000EF4E0950B2EBA2FA02D0B01B9019001C3
:101070000C01CA01A0011124FF27591B99F0593F07
:1010800050F4503E68F11A16F040A22F232F342F4F
:101090004427585FF3CF469537952795A795F0409D
:1010A0005395C9F77EF41F16BA0B620B730B840BB2
:1010B000BAF09150A1F0FF0FBB1F661F771F881F6A
:1010C000C2F70EC0BA0F621F731F841F48F48795C2
:1010D00077956795B795F7959E3F08F0B3CF9395B1
:1010E000880F08F09927EE0F979587950895ECD013
:1010F00008F481E008950CD04BC143D140F03AD1BF
:1011000030F021F45F3F19F003C151118CC12FC1A0
:1011100050D198F39923C9F35523B1F3951B550B7F
:10112000BB27AA2762177307840738F09F5F5F4FBA
:10113000220F331F441FAA1FA9F333D00E2E3AF0FB
:10114000E0E830D091505040E695001CCAF729D015
:10115000FE2F27D0660F771F881FBB1F2617370764
:101160004807AB07B0E809F0BB0B802DBF01FF2794
:1011700093585F4F2AF09E3F510568F0C9C053C194
:101180005F3FECF3983EDCF3869577956795B795CE
:10119000F7959F5FC9F7880F911D9695879597F9E9
:1011A0000895E1E0660F771F881FBB1F6217730762
:1011B0008407BA0720F0621B730B840BBA0BEE1F77
:1011C00088F7E095089504D06894B1112CC1089572
:1011D000F8D088F09F5790F0B92F9927B751A0F019
:1011E000D1F0660F771F881F991F1AF0BA95C9F7BB
:1011F00012C0B13081F016D1B1E0089513C1672F4C
:10120000782F8827B85F39F0B93FCCF3869577956A
:101210006795B395D9F73EF4909580957095619553
:101220007F4F8F4F9F4F0895E89409C097FB3EF47E
:1012300090958095709561957F4F8F4F9F4F992323
:10124000A9F0F92F96E9BB279395F69587957795A1
:101250006795B795F111F8CFFAF4BB0F11F460FF61
:101260001BC06F5F7F4F8F4F9F4F16C0882311F0B9
:1012700096E911C0772321F09EE8872F762F05C0CD
:10128000662371F096E8862F70E060E02AF09A9568
:10129000660F771F881FDAF7880F9695879597F95D
:1012A0000895A9D080F09F3740F491110EF0BBC093
:1012B00060E070E080E89FEB089526F41B16611D46
:1012C000711D811D2BC045C0990F0008550FAA0B39
:1012D000E0E8FEEF16161706E807F907C0F0121649
:1012E0001306E407F50798F0621B730B840B950B4C
:1012F00039F40A2661F0232B242B252B21F40895A1
:101300000A2609F4A140A6958FEF811D811D08953D
:1013100097F99F6780E870E060E00895882371F492
:10132000772321F09850872B762F07C0662311F47E
:1013300099270DC09051862B70E060E02AF09A95B5
:10134000660F771F881FDAF7880F9695879597F9AC
:1013500008959F3F31F0915020F4879577956795D8
:10136000B795880F911D9695879597F908959FEFEA
:1013700080EC089500240A9416161706180609062C
:10138000089500240A9412161306140605060895FB
:10139000092E0394000C11F4882352F0BB0F40F483
:1013A000BF2B11F460FF04C06F5F7F4F8F4F9F4FC3
:1013B000089557FD9058440F551F59F05F3F71F045
:1013C0004795880F97FB991F61F09F3F79F08795AC
:1013D0000895121613061406551FF2CF4695F1DF35
:1013E00008C0161617061806991FF1CF86957105C5
:1013F000610508940895E5DFA0F0BEE7B91788F409
:10140000BB279F3860F41616B11D672F782F8827E9
:10141000985FF7CF869577956795B11D9395963927
:10142000C8F30895E894BB2766277727CB0197F97F
:1014300008954ADF08F48FEF08950BD0A9CF9ADF03
:1014400028F09FDF18F0952309F062CF90CF112488
:10145000EACFAFDFA0F3959FD1F3950F50E0551F72
:10146000629FF001729FBB27F00DB11D639FAA27F9
:10147000F00DB11DAA1F649F6627B00DA11D661F48
:10148000829F2227B00DA11D621F739FB00DA11D69
:10149000621F839FA00D611D221F749F3327A00D23
:1014A000611D231F849F600D211D822F762F6A2FBF
:1014B00011249F5750408AF0E1F088234AF0EE0F44
:1014C000FF1FBB1F661F771F881F91505040A9F751
:1014D0009E3F510570F01CCFA6CF5F3FECF3983EC6
:1014E000DCF3869577956795B795F795E7959F5FB8
:1014F000C1F7FE2B880F911D9695879597F9089552
:101500002F923F924F925F926F927F928F929F9213
:10151000AF92BF92CF92DF92EF92FF920F931F9301
:10152000CF93DF93CDB7DEB760970FB6F894DEBFE9
:101530000FBECDBF7C011B016A01FC011782168220
:10154000838181FF2AC39E012F5F3F4F3901F7013D
:101550009381F10193FD859193FF81911F01882370
:1015600009F417C3853239F493FD859193FF819176
:101570001F01853231F4B70190E0CAD456016501EC
:10158000E6CF10E0512C912CFFE1F915D8F08B3209
:1015900079F038F4803279F08332A1F4F92DF061DA
:1015A0002EC08D3261F0803369F4292D21602DC069
:1015B000392D3260932E892D8460982E2AC0E92D12
:1015C000E86015C097FC2DC020ED280F2A3088F464
:1015D00096FE06C03AE0139F200D1124122F19C069
:1015E0008AE0589E200D1124522EE92DE0629E2E95
:1015F00010C08E3231F496FCCCC2F92DF0649F2ECF
:1016000008C08C3621F4292D2068922E02C088361D
:1016100041F4F10193FD859193FF81911F018111A7
:10162000B3CF9BEB980F933020F4992D9061805E9F
:1016300007C09BE9980F933008F059C1992D9F7E00
:1016400096FF16E09F73992E853619F49064992EB3
:1016500008C0863621F4392F3068932E02C011114C
:10166000115097FE07C01C3350F444244394410E9C
:1016700027E00BC0183038F027E017E005C027E05E
:101680009CE3492E02C0212F412C560184E0A80E74
:10169000B11CF6016081718182819381042DA301C7
:1016A0001ED36C01F981FC87F0FF02C0F3FF06C076
:1016B00091FC06C092FE06C000E205C00DE203C028
:1016C0000BE201C000E08C858C7019F0011143C25F
:1016D00080C297FE10C04C0CFC85F4FF04C08A81C8
:1016E000813309F44A94141474F528E0241578F52C
:1016F00088E0482E2CC096FC2AC0812F90E08C15E3
:101700009D059CF03CEFC3163FEFD30674F0892D86
:101710008068982E0AC0E2E0F0E0EC0FFD1FE10FB8
:10172000F11D8081803319F411501111F4CF97FE0F
:101730000EC044244394410E812F90E0C816D90670
:101740002CF41C1904C04424439401C010E097FEFB
:1017500006C01C141D0434F4C601019605C085E0C2
:1017600090E002C081E090E001110196112331F078
:10177000212F30E02F5F3F4F820F931F252D30E048
:101780008217930714F4581A01C0512C892D8970BF
:1017900041F4552031F0B70180E290E0B9D35A947A
:1017A000F8CF002321F0B701802F90E0B1D393FC54
:1017B00008C0552031F0B70180E390E0A9D35A94D6
:1017C000F8CF97FE4AC04601D7FE02C0812C912C6B
:1017D000C60188199909F301E80FF91FFE87ED8703
:1017E000960124193109388B2F87012F10E01195AC
:1017F000019511093FEF8316930621F4B7018EE29C
:1018000090E086D3C814D9044CF08F859889881548
:10181000990524F4ED85FE85818101C080E3F1E026
:101820008F1A91082D853E852F5F3F4F3E872D876C
:101830008016910624F0B70190E06AD3DBCFC8147C
:10184000D90441F49A81963320F4953319F43C85F8
:1018500034FF81E3B70190E048C08A81813319F0F9
:101860009C859F7E9C87B70190E052D3111105C0E3
:1018700094FC16C085E690E015C0B7018EE290E0BA
:1018800047D31E5F82E001E0080FF301E80FF11D6E
:101890008081B70190E03CD3802F0113F4CFE8CFD3
:1018A00085E490E0B70134D3D7FC06C0C114D1045D
:1018B00041F4EC85E4FF05C0D194C194D1088DE2D8
:1018C00001C08BE2B70190E023D380E32AE0C21687
:1018D000D1042CF08F5FFAE0CF1AD108F7CFB7010F
:1018E00090E016D3B701C601C09612D349C1833622
:1018F00031F0833779F0833509F052C01FC05601AB
:1019000032E0A30EB11CF6018081898301E010E072
:10191000630111C05601F2E0AF0EB11CF601C080A8
:10192000D18096FE03C0612F70E002C06FEF7FEFA1
:10193000C601B8D28C01F92DFF7713C0560122E001
:10194000A20EB11CF601C080D18096FE03C0612FAB
:1019500070E002C06FEF7FEFC60199D28C01F92DC4
:10196000F0689F2EF3FD18C0852D90E00817190729
:1019700098F4B70180E290E0CBD25A94F5CFF6010B
:1019800097FC859197FE81916F01B70190E0C0D2DD
:1019900051105A94015011090115110581F7F0C039
:1019A000843611F0893659F5560197FE09C024E0B6
:1019B000A20EB11CF60160817181828193810AC0FF
:1019C000F2E0AF0EB11CF60160817181072E000CB0
:1019D000880B990BF92DFF769F2E97FF09C09095E4
:1019E0008095709561957F4F8F4F9F4FF0689F2E28
:1019F0002AE030E0A301F6D2C82EC6183EC0092D59
:101A0000853721F40F7E2AE030E01DC0097F8F3634
:101A100091F018F4883559F0BCC0803719F0883738
:101A200011F0B7C0006104FF09C0046007C094FE54
:101A300008C0066006C028E030E005C020E130E0C4
:101A400002C020E132E0560107FF09C084E0A80E81
:101A5000B11CF601608171818281938108C0F2E03E
:101A6000AF0EB11CF6016081718180E090E0A301AE
:101A7000B9D2C82EC6180F77902E96FE0BC0092D2E
:101A80000E7FC11650F494FE0AC092FC08C0092DC6
:101A90000E7E05C0DC2C092D03C0DC2C01C0D12E2C
:101AA00004FF0DC0FE01EC0DF11D8081803311F4A7
:101AB000097E09C002FF06C0D394D39404C0802FCE
:101AC000867809F0D39403FD10C000FF06C01C2DDA
:101AD000D51478F4150D1D190CC0D51450F4B701A8
:101AE00080E290E015D2D394F8CFD51410F45D18AD
:101AF00001C0512C04FF0FC0B70180E390E008D271
:101B000002FF16C001FD03C088E790E002C088E52F
:101B100090E0B7010CC0802F867851F001FF02C021
:101B20008BE201C080E207FD8DE2B70190E0F0D1C9
:101B3000C11630F4B70180E390E0EAD11150F8CF3C
:101B4000CA94F301EC0DF11D8081B70190E0E0D162
:101B5000C110F6CF15C0F4E0F51550F584E0581A21
:101B600093FE1EC0011125C02C8523FF27C004EE63
:101B700010E0392D3071932EF8018491811121C02C
:101B8000552009F4FCCCB70180E290E0C1D15A9411
:101B9000F7CFF7018681978123C08FEF9FEF20C099
:101BA000B70180E290E0B4D15A945110F9CFDACF66
:101BB000512CB701802F90E0ABD1D6CF08EE10E0CA
:101BC000D8CF91108052B70190E0A2D10F5F1F4F84
:101BD000D3CF23E0251510F483E0C1CF512CC4CF1F
:101BE00060960FB6F894DEBF0FBECDBFDF91CF91E8
:101BF0001F910F91FF90EF90DF90CF90BF90AF902B
:101C00009F908F907F906F905F904F903F902F901C
:101C1000089597FB072E16F4009406D077FD08D0A0
:101C20002DD007FC05D03EF4909581959F4F0895E7
:101C3000709561957F4F0895A1E21A2EAA1BBB1BD8
:101C4000FD010DC0AA1FBB1FEE1FFF1FA217B30788
:101C5000E407F50720F0A21BB30BE40BF50B661F9E
:101C6000771F881F991F1A9469F760957095809562
:101C700090959B01AC01BD01CF010895AA1BBB1B30
:101C800051E107C0AA1FBB1FA617B70710F0A61B7C
:101C9000B70B881F991F5A95A9F780959095BC019D
:101CA000CD010895FC0188279927E89421912032DD
:101CB000E9F3293010F02E30C8F32B3239F02D32F1
:101CC00031F4689403C003D1820F911D21912053F8
:101CD0002A30C8F31EF4909581959F4F08952830BF
:101CE00008F027E03327DA01990F311D87FD916055
:101CF00000966105710539F432602E5F3D9330E343
:101D00002A95E1F708959F3F30F08038710561050D
:101D100009F03C5F3C5F3D93913008F08068911D75
:101D2000DF93CF931F930F93FF92EF92192F987F1A
:101D30009695E92F96959695E90FFF27EA5BFE4F5A
:101D400099273327EE24FF24A701E7010590089483
:101D5000079428F4360FE71EF81E491F511D660F21
:101D6000771F881F991F0694A1F70590079428F400
:101D7000E70EF81E491F561FC11D770F881F991FB8
:101D8000661F0694A1F70590079428F4F80E491FE2
:101D9000561FC71FD11D880F991F661F771F0694F6
:101DA000A1F70590079420F4490F561FC71FD81FAD
:101DB000990F661F771F881F0694A9F784911095C5
:101DC000177041F0D695C79557954795F794E794C6
:101DD0001A95C1F7ECEEF0E06894159015913591E5
:101DE0006591959105907FE27395E118F10A430B97
:101DF000560BC90BD009C0F7E10CF11E431F561F4B
:101E0000C91FD01D7EF4703311F48A95E6CFE89493
:101E1000015030F0080F0AF40027021708F4202FB1
:101E20002395022F7A3328F079E37D932A95E9F7F9
:101E300010C07D932A9589F60694979567953795F6
:101E400017951794E118F10A430B560BC90BD009EB
:101E500098F023957E9173957A3308F070E37C9324
:101E60002013B8F77E9170617D9330F0839571E314
:101E70007D9370E32A95E1F71124EF90FF900F9185
:101E80001F91CF91DF91992787FD90950895FC01CF
:101E90000590615070400110D8F7809590958E0F95
:101EA0009F1F0895FC016150704001900110D8F708
:101EB000809590958E0F9F1F0895BB274A3031F46F
:101EC000992322F4BDE2909581959F4F09C07AE055
:101ED000979F902D879F802D910D11240895BB27EA
:101EE000FB015527AA27880F991FAA1FA41710F0D6
:101EF000A41B83955051B9F7A05DAA3308F0A95DE2
:101F0000A193009779F7B111B1931192CB01C8C099
:101F10000F931F93CF93DF93FB01238121FD03C018
:101F20008FEF9FEF2CC022FF16C04681578124817E
:101F300035814217530744F4A081B1819D012F5F81
:101F40003F4F318320838C93268137812F5F3F4F12
:101F50003783268314C08B01EC01FB010084F185DB
:101F6000E02D1995892BE1F6D80116968D919C915B
:101F70001797019617969C938E931697CE01DF9133
:101F8000CF911F910F9108950F931F93CF93DF93DC
:101F9000CDB7DEB72E970FB6F894DEBF0FBECDBF1C
:101FA0000E891F8986E08C831A8309838FEF9FE750
:101FB0009E838D83AE01465E5F4F688D798DCE0125
:101FC00001969EDAEF81F885E00FF11F10822E96C0
:101FD0000FB6F894DEBF0FBECDBFDF91CF911F913A
:101FE0000F910895FA01AA27283051F1203181F18B
:101FF000E8946F936E7F6E5F7F4F8F4F9F4FAF4F11
:10200000B1E03ED0B4E03CD0670F781F891F9A1F23
:10201000A11D680F791F8A1F911DA11D6A0F711DD7
:10202000811D911DA11D20D009F468943F912AE0E3
:10203000269F11243019305D3193DEF6CF010895CB
:10204000462F4770405D4193B3E00FD0C9F7F6CFFC
:10205000462F4F70405D4A3318F0495D31FD4052C4
:10206000419302D0A9F7EACFB4E0A695979587955A
:1020700077956795BA95C9F7009761057105089539
:102080009B01AC010A2E06945795479537952795E5
:10209000BA95C9F7620F731F841F951FA01D08957D
:1020A000DC01FC01672F71917723E1F7329704C0BF
:1020B0007C916D9370836291AE17BF07C8F308954A
:0420C000F894FFCFC2
:1020C40001010000C8410000F041000048420080C6
:1020D4003BC500803B458988883C0000C0400A49D4
:1020E4004E54455252555054210A000A56616C759B
:1020F400652072656369657665640A000A52454124
:1021040044494E472053544152540A000A54656DC1
:10211400700A002566000A4C4544204272696768CB
:10212400746E6573730A002564000A436F320A00F3
:102134000A48756D69646974790A000A5245414414
:0A214400494E4720454E440A0000B2
:00000001FF
