:100000000C9472000C9493000C9493000C94930045
:100010000C9493000C9493000C9493000C94930014
:100020000C9493000C9493000C9493000C94930004
:100030000C9493000C9493000C9493000C949300F4
:100040000C9493000C9493000C9493000C949300E4
:100050000C9493000C9493000C9493000C949300D4
:100060000C9493000C9493000C9493000C949300C4
:100070000C9493000C9493000C9493000C949300B4
:100080000C9493000C9493000C9493000C949300A4
:100090000C9493000C9493000C9493000C94930094
:1000A0000C9493000C9493000C9493000C94930084
:1000B0000C9493000C9493000C9493000C94930074
:1000C0000C9493000C9493000C9493000C94930064
:1000D0000C9493000C9493000C9493000C94930054
:1000E0000C94930011241FBECFEFD1E2DEBFCDBF31
:1000F00000E00CBF12E0A0E0B2E0EAECF8E100E0C2
:100100000BBF02C007900D92AA32B107D9F723E0C6
:10011000AAE2B2E001C01D92A236B207E1F70E9446
:1001200029070C94630C0C940000CF92DF92EF929D
:10013000FF92CF936B017C01C42FDC01CB018C5269
:100140009140A109B109843D904CA140B10568F5E9
:100150008BEF840F843048F588E1222311F07894E6
:1001600088E98093C10060E472E48FE090E0A70129
:1001700096010E943607215031093093C500209323
:10018000C40086E08093C2001092C2008091C20039
:1001900082608093C2008091C200C73071F0C83085
:1001A00071F0C63041F08093C200CF91FF90EF9084
:1001B000DF90CF9008958260F6CF8460F4CF8660A0
:1001C000F2CF8091C000881F8827881F08958091F2
:1001D000C00087FFFCCF8091C60008959091C000B9
:1001E00095FFFCCF8093C6000895CF93DF93EC0179
:1001F0008991811103C0DF91CF9108950E94EE0093
:10020000F7CFCF93DF9300D000D00F92CDB7DEB7FA
:100210004AE0BE016F5F7F4F0E945909CE010196EF
:100220000E94F50027960FB6F894DEBF0FBECDBF33
:10023000DF91CF910895CF93DF9300D000D0CDB759
:10024000DEB74E835D831F921F9269837A838B830F
:100250009C8369817A818B819C810E943C087F9379
:100260006F9388E192E09F938F938D818F939E810E
:100270009F930E947E090FB6F894DEBF0FBECDBFDC
:100280008E819D8126960FB6F894DEBF0FBECDBF3E
:10029000DF91CF91089582E88093800083E380937B
:1002A000810088EC90E09093870080938600109204
:1002B0008900109288008FEF84B90895809188009A
:1002C00090918900883C910548F480918800909134
:1002D00089004496909389008093880008958091C6
:1002E000880090918900892B49F080918800909135
:1002F00089004497909389008093880008959C0119
:100300008536910538F4220F331F309389002093EE
:1003100088000895853691053CF088EC90E0909334
:1003200089008093880008951092890010928800B7
:10033000089588E48093B8001092B900089584EA83
:100340008093BC008091BC0087FFFCCF089584E9B6
:100350008093BC008091BC0084FDFCCF0895809305
:10036000BB0084E88093BC008091BC0087FFFCCF79
:10037000089584EC8093BC008091BC0087FFFCCF83
:100380008091BB00089584E88093BC008091BC00FC
:1003900087FFFCCF8091BB000895FC018081809590
:1003A00098E021E387FF03C0880F822701C0880FF0
:1003B0009150C1F79181892798E021E387FF03C01D
:1003C000880F822701C0880F9150C1F70895DF92EE
:1003D000EF92FF920F931F93CF93DF930F920F92A1
:1003E000CDB7DEB7E82ED92E8B01F42E0E949F01E7
:1003F00082EC0E94AF018D2D0E94AF018E2D0E94D4
:10040000AF01FF2079F0902F812F9A8389830E947A
:10041000AF018A810E94AF01CE0101960E94CD01F9
:100420000E94AF010E94A7010F900F90DF91CF9122
:100430001F910F91FF90EF90DF900895FF920F931F
:100440001F93CF93DF9300D0CDB7DEB740E070E0CD
:1004500060E082E092E00E94E7018FED9EE201976A
:10046000F1F700C000000E949F0183EC0E94AF01E1
:100470000E94B901082F89830E94B901182F8A832D
:100480000E94C301F82E8B830E94A701CE01019622
:100490000E94CD01F81206C0302F212F81E02130BB
:1004A000310509F080E00F900F900F90DF91CF9110
:1004B0001F910F91FF9008958F929F92BF92CF92BC
:1004C000DF92EF92FF920F931F93CF93DF93CDB7FD
:1004D000DEB762970FB6F894DEBF0FBECDBF6C01DA
:1004E0007B018A0140E070E060E080E093E00E94E0
:1004F000E7018FED9EE20197F1F700C000000E9436
:100500009F0183EC0E94AF01FE0131964F01B12C97
:10051000F1E1BF1253C00E94C301B394FFEF8F1AE1
:100520009F0A82E1B812F4CF0E94A70129818A8133
:1005300090E0B0E0A0E0DC0199278827B22B2D8164
:10054000822B2C81922BF60180839183A283B3832B
:100550002F81888590E0B0E0A0E0DC019927882712
:10056000B22B2B85822B2A85922BF70180839183D6
:10057000A283B3832D858E8590E0B0E0A0E0DC01FE
:1005800099278827B22B2989822B2889922BF80159
:1005900080839183A283B38362960FB6F894DEBF03
:1005A0000FBECDBFDF91CF911F910F91FF90EF90C4
:1005B000DF90CF90BF909F908F9008950E94B901D7
:1005C000F4018083AACFAF92BF92CF92DF92EF92D5
:1005D000FF920F931F93CF93DF93CDB7DEB7609356
:1005E0004602709347028093480290934902E0923A
:1005F0003E02F0923F02009340021093410220938A
:100600004202309343024093440250934502A09229
:100610003602B0923702C0923802D09239028E85EB
:100620009F85A889B9898093320290933302A09361
:100630003402B09335028A899B89AC89BD89809345
:100640003A0290933B02A0933C02B0933D02DF91AB
:10065000CF911F910F91FF90EF90DF90CF90BF90BF
:10066000AF9008956093000270930102809302029C
:10067000909303020895CF93DF9300D00F92CDB7EC
:10068000DEB78091000290910102A0910202B09128
:100690000302BC01CD010F900F900F900F90DF91DE
:1006A000CF9108952F923F924F925F926F927F92D7
:1006B0008F929F92AF92BF92CF92DF92EF92FF9272
:1006C0000F931F93CF93DF93CDB7DEB72D970FB660
:1006D000F894DEBF0FBECDBF6A01790158019B01BE
:1006E000AC01609100027091010280910202909130
:1006F00003020E9458078B018D879C8780913A02E4
:1007000090913B02A0913C02B0913D028D839E836B
:10071000AF83B88798014D855C85BC01CD010E94EF
:10072000EC0820912E0230912F024091300250911E
:10073000310269837A838B839C8369817A818B817F
:100740009C810E945907F62FE72F462F572FBC0197
:1007500040932E0250932F02609330027093310227
:100760004090360250903702609038027090390203
:10077000A3019201F983EA838B839C8369817A8147
:100780008B819C810E94E708181644F440922E0247
:1007900050922F02609230027092310240903202E9
:1007A000509033026090340270903502A3019201A0
:1007B00060912E0270912F0280913002909131024F
:1007C0000E94C50787FF08C040922E0250922F0258
:1007D00060923002709231022091460230914702BD
:1007E000409148025091490209831A839D859B8359
:1007F000AC85AC8369817A818B819C810E94EC08F5
:100800003B014C012091420230914302409144024D
:100810005091450260912E0270912F02809130021A
:10082000909131020E94EC081B012C0120912A02B8
:1008300030912B0240912C0250912D0269817A81D6
:100840008B819C810E9458072D813E814F81588564
:1008500069837A838B839C8369817A818B819C8174
:100860000E94CA0720913E0230913F02409140020F
:100870005091410269837A838B839C8369817A8159
:100880008B819C810E94EC086D8379878A879B8786
:10089000C301D401F60180839183A283B383C10194
:1008A000D201F70180839183A283B383CB01AA8510
:1008B000BB85F50180839183A283B383C801AD8595
:1008C000BC8580932A0290932B02A0932C02B093B4
:1008D0002D029101A20169827A828B829C826981B8
:1008E0007A818B819C810E9459072D8139854A85A7
:1008F0005B8569837A838B839C8369817A818B8111
:100900009C810E94590769837A838B839C836981C8
:100910007A818B819C812D960FB6F894DEBF0FBE35
:10092000CDBFDF91CF911F910F91FF90EF90DF909E
:10093000CF90BF90AF909F908F907F906F905F907F
:100940004F903F902F900895AF92BF92CF92DF9239
:10095000EF92FF920F931F93CF93DF9300D000D0BD
:100960000F920F92CDB7DEB721E048E060E875E264
:1009700080E090E00E9495000E944B010E94990146
:10098000A0900C02B0900D02C0900E02D0900F0209
:100990008091520290915302A0915402B09155025D
:1009A00089839A83AB83BC8320911002309111021A
:1009B00040911202509113028091140290911502FD
:1009C000A0911602B09117028D839E83AF83B887E2
:1009D0008EE38F938AEA8F938EE78F938AEF8F93BC
:1009E00080910B028F9380910A028F93809109026C
:1009F0008F93809108028F93E980FA800B811C818C
:100A00006D817E818F8198850E94E302809104022E
:100A100090910502A0910602B091070289839A8302
:100A2000AB83BC83BC01CD010E9432030FB6F894A6
:100A3000DEBF0FBECDBF41E070E060E080E190E03E
:100A400028960FB6F894DEBF0FBECDBFDF91CF91D1
:100A50001F910F91FF90EF90DF90CF90BF90AF90DC
:100A60000C94E7010F931F93CF93DF9300D000D036
:100A7000CDB7DEB78B018E839D8369831A838B8309
:100A80009C8369817A818B819C810E943203A801B9
:100A90006E817D81409304025093050260930602AB
:100AA0007093070226960FB6F894DEBF0FBECDBF37
:100AB000DF91CF911F910F9108950F931F93CF93C3
:100AC000DF93CDB7DEB760970FB6F894DEBF0FBEE9
:100AD000CDBF19861A861B861C861D821E821F8228
:100AE000188619821A821B821C828E010F5F1F4F8B
:100AF0009E012B5F3F4FAE01475F5F4F6D877E8743
:100B00008F87988B6D857E858F8598890E9452038B
:100B1000362F272F462F572FBC0140934E0250935C
:100B20004F0260935002709351023D872E878F874A
:100B3000988B6D857E858F8598890E943C08CB01B6
:100B40000E947F0160960FB6F894DEBF0FBECDBF46
:100B5000DF91CF911F910F910895CF93DF9300D034
:100B60000F92CDB7DEB78EE192E00E94F500809142
:100B70005E0390915F03A0916003B091610389834C
:100B80009A83AB83BC834AE552E0BC01CD010E944D
:100B90001B010F900F900F900F90DF91CF910C944D
:100BA000F5006F927F928F929F92AF92BF92CF92F9
:100BB000DF92EF92FF920F931F93CF93DF93CDB706
:100BC000DEB72C970FB6F894DEBF0FBECDBF39014C
:100BD0004A012E8D3F8D48A159A12D833E834F831D
:100BE00058872AA13BA14CA15DA129873A874B8751
:100BF0005C874AE552E069837A838B839C836981B1
:100C00007A818B819C810E941B010E94F50085E204
:100C100092E00E94F5004AE552E069827A828B8276
:100C20009C8269817A818B819C810E941B010E9438
:100C3000F50085E292E00E94F5004AE552E0E98283
:100C4000FA820B831C8369817A818B819C810E944B
:100C50001B010E94F50085E292E00E94F5004AE542
:100C600052E0A982BA82CB82DC8269817A818B814F
:100C70009C810E941B010E94F50085E292E00E9487
:100C8000F5004AE552E06D817E818F8198850E9452
:100C90001B010E94F50085E292E00E94F5004AE502
:100CA00052E069857A858B859C850E941B010E9494
:100CB000F50087E292E02C960FB6F894DEBF0FBEE7
:100CC000CDBFDF91CF911F910F91FF90EF90DF90FB
:100CD000CF90BF90AF909F908F907F906F900C942B
:100CE000F500CF93DF93CDB7DEB764970FB6F894D6
:100CF000DEBF0FBECDBF0E941E02882341F046E535
:100D000052E06EE573E08AE593E00E945C02809118
:100D10005E0390915F03A0916003B0916103198617
:100D20001A861B861C861D821E821F8218861982C7
:100D30001A821B821C828E010F5F1F4F9E012B5F48
:100D40003F4FAE01475F5F4FBC01CD010E94520390
:100D5000362F272F462F572FBC0140934E0250931A
:100D60004F0260935002709351023D872E878F8708
:100D7000988B6D857E858F8598890E943C08CB0174
:100D80000E947F01A984BA84CB84DC8480914E02C6
:100D900090914F02A0915002B09151028D879E8791
:100DA000AF87B88B20915E0330915F034091600361
:100DB000509161038091040290910502A091060276
:100DC000B0910702898B9A8BAB8BBC8B80914D02C3
:100DD0008F9380914C028F9380914B028F938091DF
:100DE0004A028F9388858F938F818F938E818F9303
:100DF0008D818F93ED84FE840F85188969897A89A6
:100E00008B899C890E94D10523EC35EF48EA5EE38B
:100E100060914A0270914B0280914C0290914D0278
:100E20000E94590760934A0270934B0280934C02D0
:100E300090934D029FE7A2E4B0E19150A040B040F2
:100E4000E1F700C000000FB6F894DEBF0FBECDBFC3
:100E500052CF0E94A40460E070E088E492E40E9413
:100E600032050E94710690E080E00895A1E21A2EFA
:100E7000AA1BBB1BFD010DC0AA1FBB1FEE1FFF1F3E
:100E8000A217B307E407F50720F0A21BB30BE40B8E
:100E9000F50B661F771F881F991F1A9469F76095D5
:100EA0007095809590959B01AC01BD01CF0108958F
:100EB0005058BB27AA270E9470070C94AD080E94C7
:100EC0009F0838F00E94A60820F039F49F3F19F4DB
:100ED00026F40C949C080EF4E095E7FB0C9496081D
:100EE000E92F0E94BE0858F3BA17620773078407F8
:100EF000950720F079F4A6F50C94E0080EF4E0953F
:100F00000B2EBA2FA02D0B01B90190010C01CA01C3
:100F1000A0011124FF27591B99F0593F50F4503E6E
:100F200068F11A16F040A22F232F342F4427585F60
:100F3000F3CF469537952795A795F0405395C9F778
:100F40007EF41F16BA0B620B730B840BBAF0915030
:100F5000A1F0FF0FBB1F661F771F881FC2F70EC0CF
:100F6000BA0F621F731F841F48F4879577956795A2
:100F7000B795F7959E3F08F0B0CF9395880F08F08E
:100F80009927EE0F9795879508950E94720808F4A7
:100F900081E008950E94DE070C94AD080E94A60827
:100FA00058F00E949F0840F029F45F3F29F00C940C
:100FB000960851110C94E1080C949C080E94BE08FC
:100FC00068F39923B1F3552391F3951B550BBB2778
:100FD000AA2762177307840738F09F5F5F4F220FBD
:100FE000331F441FAA1FA9F335D00E2E3AF0E0E8B4
:100FF00032D091505040E695001CCAF72BD0FE2FFE
:1010000029D0660F771F881FBB1F26173707480791
:10101000AB07B0E809F0BB0B802DBF01FF27935849
:101020005F4F3AF09E3F510578F00C9496080C946F
:10103000E1085F3FE4F3983ED4F386957795679592
:10104000B795F7959F5FC9F7880F911D969587957E
:1010500097F90895E1E0660F771F881FBB1F62179D
:1010600073078407BA0720F0621B730B840BBA0B5B
:10107000EE1F88F7E09508950E9443086894B11127
:101080000C94E10808950E94C60888F09F5798F0D4
:10109000B92F9927B751B0F0E1F0660F771F881F7D
:1010A000991F1AF0BA95C9F714C0B13091F00E9497
:1010B000E008B1E008950C94E008672F782F8827A6
:1010C000B85F39F0B93FCCF3869577956795B395BE
:1010D000D9F73EF490958095709561957F4F8F4F2D
:1010E0009F4F0895990F0008550FAA0BE0E8FEEFF7
:1010F00016161706E807F907C0F012161306E407DC
:10110000F50798F0621B730B840B950B39F40A26D4
:1011100061F0232B242B252B21F408950A2609F4B2
:10112000A140A6958FEF811D811D089597F99F67B6
:1011300080E870E060E008959FEF80EC089500245F
:101140000A941616170618060906089500240A942C
:1011500012161306140605060895092E0394000CB2
:1011600011F4882352F0BB0F40F4BF2B11F460FF41
:1011700004C06F5F7F4F8F4F9F4F089557FD90586A
:10118000440F551F59F05F3F71F04795880F97FB4B
:10119000991F61F09F3F79F0879508951216130605
:1011A0001406551FF2CF4695F1DF08C01616170634
:1011B0001806991FF1CF8695710561050894089569
:1011C000E894BB2766277727CB0197F908950E94FB
:1011D000720808F48FEF08950E94FF080C94AD0880
:1011E0000E949F0838F00E94A60820F0952311F075
:1011F0000C9496080C949C0811240C94E1080E940D
:10120000BE0870F3959FC1F3950F50E0551F629F84
:10121000F001729FBB27F00DB11D639FAA27F00D4F
:10122000B11DAA1F649F6627B00DA11D661F829F76
:101230002227B00DA11D621F739FB00DA11D621F5B
:10124000839FA00D611D221F749F3327A00D611D78
:10125000231F849F600D211D822F762F6A2F11245A
:101260009F5750409AF0F1F088234AF0EE0FFF1F8D
:10127000BB1F661F771F881F91505040A9F79E3FE4
:10128000510580F00C9496080C94E1085F3FE4F35C
:10129000983ED4F3869577956795B795F795E7953A
:1012A0009F5FC1F7FE2B880F911D9695879597F943
:1012B0000895BB274A3031F4992322F4BDE290957A
:1012C00081959F4F0C946509BB27FB015527AA27E1
:1012D000880F991FAA1FA41710F0A41B83955051C3
:1012E000B9F7A05DAA3308F0A95DA193009779F73B
:1012F000B111B1931192CB010C94C50B0F931F93B5
:10130000CF93DF93CDB7DEB72E970FB6F894DEBF3D
:101310000FBECDBF0E891F8986E08C831A83098397
:101320008FEF9FE79E838D83AE01465E5F4F688D92
:10133000798DCE0101960E94AE092F813885020F6A
:10134000131FF80110822E960FB6F894DEBF0FBE61
:10135000CDBFDF91CF911F910F9108952F923F92B2
:101360004F925F926F927F928F929F92AF92BF92B5
:10137000CF92DF92EF92FF920F931F93CF93DF9361
:10138000CDB7DEB72F970FB6F894DEBF0FBECDBF37
:101390007C013B018A01DC0117961C921E92169774
:1013A00013968C9181FFD8C19AE0292EFE013196C7
:1013B0004F01D70113969C91F30193FD859193FF03
:1013C00081913F01882309F448C1853239F493FDA6
:1013D000859193FF81913F01853229F4B70190E017
:1013E0000E94D50BE6CFB12C412C512CBFE1B51595
:1013F00038F08B3209F188F4803201F1833221F127
:1014000057FC3AC020ED280F2A3040F556FE1FC089
:10141000B29C200D1124B22E06C08D3291F0803383
:1014200079F7689450F8F30193FD859193FF8191CA
:101430003F018111DBCF20C0689451F8689452F8C5
:10144000F2CF689453F8EFCF689454F8ECCF429CF5
:10145000200D1124422E689455F8E5CF8E3229F4E0
:1014600056FCFBC0689456F8DECF8C3619F46894AD
:1014700057F8D9CF8836B9F2982F9F7D955493307D
:10148000C0F08336A1F18337C1F1833509F05BC029
:10149000D801CD90DD908D016B2D70E056FC02C01F
:1014A0006FEF7FEFC6010E94AF0B5C01689457F8A5
:1014B0000AC00C5F1F4FEFE3E983AA24A394B12C69
:1014C0006401E89457F853FC04C04A141B0409F063
:1014D00018F5342CA114B10431F5332009F469CF87
:1014E000B70180E290E00E94D50B3A94F6CFD80184
:1014F0008C9189830E5F1F4FE0CFF801C190D1908E
:101500008F016B2D70E056FC02C06FEF7FEFC601BC
:101510000E94BA0B5C01D5CFB70180E290E00E9437
:10152000D50B4A94D2CFF60157FC859157FE819195
:101530006F01B70190E00E94D50B31103A94B1E0F1
:10154000AB1AB108C7CF843619F0893609F074C0D8
:10155000F80157FE6AC061917191819191918F015B
:10156000E52DEF76DE2E97FF09C09095809570955A
:1015700061957F4F8F4F9F4F6894D7F82AE030E0F6
:10158000A4010E94050CC82EC818AC2C5D2CD6FEF8
:101590000CC0E89450F8CB1440F4D4FE05C0D2FC43
:1015A00003C05D2D5E7E552EAB2C54FEADC0FE01FA
:1015B000EC0DF11D8081803309F09FC0652D697E9F
:1015C000562E752D7870372E53FCADC050FEA7C037
:1015D000BC2CA41418F44C0CB42CBA1854FEA9C09A
:1015E000B70180E390E00E94D50B52FE09C088E766
:1015F00090E051FE02C088E590E0B7010E94D50B53
:10160000CB1408F4A2C0CA94D12C8FEFC81AD80A00
:10161000C80CD91CD6018E916D01B70190E00E94D3
:10162000D50B8C149D04B1F758CF61917191072EA1
:10163000000C880B990B93CFD52CE894D4F82AE0B2
:1016400030E08537E1F1F52DF97FDF2E803751F15C
:1016500000F5883551F18F3681F1F7018681978148
:101660002F960FB6F894DEBF0FBECDBFDF91CF919E
:101670001F910F91FF90EF90DF90CF90BF90AF90B0
:101680009F908F907F906F905F904F903F902F90A2
:101690000895883711F7D4FE02C06894D2F820E18B
:1016A00030E00DC06894D4F8F6CF54FE03C02F2F5D
:1016B0002660D22E20E132E002C028E030E0F801BE
:1016C000D7FE15C041915191619171914C875D8711
:1016D0006E877F878F01A4016C857D858E859F85B0
:1016E0000E94050CC82EC818E894D7F84ECF8191F7
:1016F0009191AC0170E060E0E9CF52FC02C0A3948C
:1017000060CFA394A3945DCF852D867809F459CF3B
:10171000F6CFB70180E290E00E94D50BA394A41409
:10172000C0F3312C5BCF342C3A18A41408F456CFF4
:10173000F8CF852D867809F463CF8BE251FE80E2E5
:1017400057FC8DE2B70190E059CFB70180E390E0FC
:101750000E94D50BBA9454CF8FEF9FEF81CFFC013D
:101760000590615070400110D8F7809590958E0FCC
:101770009F1F0895FC016150704001900110D8F73F
:10178000809590958E0F9F1F0895DC01FC01672FB7
:1017900071917723E1F7329704C07C916D93708348
:1017A0006291AE17BF07C8F308950F931F93CF93AD
:1017B000DF93182F092FEB018B8181FD09C01FEFEB
:1017C0000FEF812F902FDF91CF911F910F910895EF
:1017D00082FF14C02E813F818C819D81281739079B
:1017E0003CF4E881F981CF010196998388831083C5
:1017F0008E819F8101969F838E83E3CFE885F98553
:10180000812F1995892BA1F3DACFFA01AA27283065
:1018100051F1203181F1E8946F936E7F6E5F7F4FBD
:101820008F4F9F4FAF4FB1E03ED0B4E03CD0670F39
:10183000781F891F9A1FA11D680F791F8A1F911D8C
:10184000A11D6A0F711D811D911DA11D20D009F4DC
:1018500068943F912AE0269F11243019305D31931E
:10186000DEF6CF010895462F4770405D4193B3E007
:101870000FD0C9F7F6CF462F4F70405D4A3318F0AE
:10188000495D31FD4052419302D0A9F7EACFB4E05F
:10189000A6959795879577956795BA95C9F7009717
:1018A0006105710508959B01AC010A2E06945795B8
:1018B000479537952795BA95C9F7620F731F841F0F
:0A18C000951FA01D0895F894FFCFB6
:1018CA000000F0410000484200803BC500803B45D3
:1018DA008988883C0000C04025642E256400546530
:0A18EA006D703A20002C000A0D007A
:00000001FF
