:100000000C9472000C9493000C9493000C94930045
:100010000C9493000C9493000C9493000C94930014
:100020000C9493000C9493000C9493000C94930004
:100030000C9493000C9493000C9493000C949300F4
:100040000C9493000C9493000C9493000C949300E4
:100050000C9493000C9493000C9493000C949300D4
:100060000C9493000C94B5000C9493000C949300A2
:100070000C9493000C9493000C9493000C949300B4
:100080000C9493000C9493000C9493000C949300A4
:100090000C9493000C9493000C9493000C94930094
:1000A0000C9493000C9493000C9493000C94930084
:1000B0000C9493000C9493000C9493000C94930074
:1000C0000C9493000C9493000C9493000C94930064
:1000D0000C9493000C9493000C9493000C94930054
:1000E0000C94930011241FBECFEFD1E2DEBFCDBF31
:1000F00000E00CBF12E0A0E0B2E0E2EBF7E100E0CC
:100100000BBF02C007900D92AA39B107D9F723E0BF
:10011000AAE9B2E001C01D92A63CB207E1F70E9435
:10012000B2050C94D70B0C940000813339F0823364
:10013000A9F08FE192E00E9403020BC088E092E0F8
:100140000E94030290E080E00E948D0202C0809134
:10015000C6008091C00087FDFACF089584E192E047
:100160000E94030284E690E0EFCF1F920F920FB639
:100170000F9211240BB60F922F933F934F935F93DF
:100180006F937F938F939F93AF93BF93EF93FF935F
:100190008091C6000E949500FF91EF91BF91AF91B1
:1001A0009F918F917F916F915F914F913F912F918F
:1001B0000F900BBE0F900FBE0F901F9018956F926F
:1001C0007F928F929F92AF92BF92CF92DF92EF92E7
:1001D000FF920F931F93CF93DF93CDB7DEB72C978A
:1001E0000FB6F894DEBF0FBECDBF39014A012E8D88
:1001F0003F8D48A159A12D833E834F8358872AA163
:100200003BA14CA15DA129873A874B875C874EE9CA
:1002100052E069837A838B839C8369817A818B81A5
:100220009C810E9429020E94030284E392E00E94C2
:1002300003024EE952E069827A828B829C82698154
:100240007A818B819C810E9429020E94030284E3AF
:1002500092E00E9403024EE952E0E982FA820B83A7
:100260001C8369817A818B819C810E9429020E9472
:10027000030284E392E00E9403024EE952E0A98265
:10028000BA82CB82DC8269817A818B819C810E94D7
:1002900029020E94030284E392E00E9403024EE9D5
:1002A00052E06D817E818F8198850E9429020E9493
:1002B000030284E392E00E9403024EE952E0698562
:1002C0007A858B859C850E9429020E9403028AE818
:1002D00092E02C960FB6F894DEBF0FBECDBFDF9133
:1002E000CF911F910F91FF90EF90DF90CF90BF9033
:1002F000AF909F908F907F906F900C940302CF935C
:10030000DF9300D00F92CDB7DEB78DE892E00E9468
:1003100003028091C2039091C303A091C403B091E2
:10032000C50389839A83AB83BC834EE952E0BC0149
:10033000CD010E9429020F900F900F900F90DF9136
:10034000CF910C940302CF92DF92EF92FF92CF9362
:100350006B017C01C42FDC01CB018C529140A109BF
:10036000B109843D904CA140B10568F58BEF840F35
:10037000843048F588E1222311F0789488E980934D
:10038000C10060E472E48FE090E0A70196010E9452
:10039000AA06215031093093C5002093C40086E09D
:1003A0008093C2001092C2008091C200826080934C
:1003B000C2008091C200C73071F0C83071F0C63001
:1003C00041F08093C200CF91FF90EF90DF90CF90EB
:1003D00008958260F6CF8460F4CF8660F2CF80917A
:1003E000C000881F8827881F08958091C00087FF5C
:1003F000FCCF8091C60008959091C00095FFFCCF7E
:100400008093C6000895CF93DF93EC018991811109
:1004100003C0DF91CF9108950E94FC01F7CFCF93E5
:10042000DF9300D000D00F92CDB7DEB74AE0BE0117
:100430006F5F7F4F0E94CD08CE0101960E9403029C
:1004400027960FB6F894DEBF0FBECDBFDF91CF91D8
:100450000895CF93DF9300D000D0CDB7DEB74E83A1
:100460005D831F921F9269837A838B839C8369814A
:100470007A818B819C810E94B0077F936F9384E97E
:1004800092E09F938F938D818F939E819F930E9483
:10049000F2080FB6F894DEBF0FBECDBF8E819D81EE
:1004A00026960FB6F894DEBF0FBECDBFDF91CF9179
:1004B000089582E88093800083E38093810088EC34
:1004C00090E09093870080938600109289001092AC
:1004D00088008FEF84B908958091880090918900F9
:1004E000883C910548F48091880090918900449659
:1004F000909389008093880008958091880090915E
:100500008900892B49F08091880090918900449757
:10051000909389008093880008959C018536910509
:1005200038F4220F331F30938900209388000895F8
:10053000853691053CF088EC90E09093890080939B
:10054000880008951092890010928800089588E428
:100550008093B8001092B900089584EA8093BC009B
:100560008091BC0087FFFCCF089584E98093BC0094
:100570008091BC0084FDFCCF08958093BB0084E88B
:100580008093BC008091BC0087FFFCCF089584EC71
:100590008093BC008091BC0087FFFCCF8091BB00A2
:1005A000089584E88093BC008091BC0087FFFCCF55
:1005B0008091BB000895FC018081809598E021E343
:1005C00087FF03C0880F822701C0880F9150C1F7B1
:1005D0009181892798E021E387FF03C0880F822754
:1005E00001C0880F9150C1F70895DF92EF92FF92FA
:1005F0000F931F93CF93DF930F920F92CDB7DEB778
:10060000E82ED92E8B01F42E0E94AD0282EC0E94BE
:10061000BD028D2D0E94BD028E2D0E94BD02FF20C5
:1006200079F0902F812F9A8389830E94BD028A815D
:100630000E94BD02CE0101960E94DB020E94BD0213
:100640000E94B5020F900F90DF91CF911F910F91F3
:10065000FF90EF90DF900895FF920F931F93CF9339
:10066000DF9300D0CDB7DEB740E070E060E082E01D
:1006700092E00E94F5028FED9EE20197F1F700C033
:1006800000000E94AD0283EC0E94BD020E94C702DE
:10069000082F89830E94C702182F8A830E94D102E3
:1006A000F82E8B830E94B502CE0101960E94DB02D8
:1006B000F81206C0302F212F81E02130310509F0DA
:1006C00080E00F900F900F90DF91CF911F910F91CD
:1006D000FF9008958F929F92BF92CF92DF92EF92F8
:1006E000FF920F931F93CF93DF93CDB7DEB762973F
:1006F0000FB6F894DEBF0FBECDBF6C017B018A013F
:1007000040E070E060E080E093E00E94F5028FED51
:100710009EE20197F1F700C000000E94AD0283EC59
:100720000E94BD02FE0131964F01B12CF1E1BF12D2
:1007300053C00E94D102B394FFEF8F1A9F0A82E147
:10074000B812F4CF0E94B50229818A8190E0B0E00E
:10075000A0E0DC0199278827B22B2D81822B2C81E8
:10076000922BF60180839183A283B3832F818885A6
:1007700090E0B0E0A0E0DC0199278827B22B2B8520
:10078000822B2A85922BF70180839183A283B383E6
:100790002D858E8590E0B0E0A0E0DC0199278827C8
:1007A000B22B2989822B2889922BF801808391838F
:1007B000A283B38362960FB6F894DEBF0FBECDBF9F
:1007C000DF91CF911F910F91FF90EF90DF90CF902D
:1007D000BF909F908F9008950E94C702F40180837C
:1007E000AACFAF92BF92CF92DF92EF92FF920F9378
:1007F0001F93CF93DF93CDB7DEB76093BA037093A7
:10080000BB038093BC039093BD03E092B203F092CC
:10081000B3030093B4031093B5032093B60330934E
:10082000B7034093B8035093B903A092AA03B092C0
:10083000AB03C092AC03D092AD038E859F85A8898F
:10084000B9898093A6039093A703A093A803B093BC
:10085000A9038A899B89AC89BD898093AE03909353
:10086000AF03A093B003B093B103DF91CF911F9179
:100870000F91FF90EF90DF90CF90BF90AF900895D1
:10088000609304027093050280930602909307021E
:100890000895CF93DF9300D00F92CDB7DEB780914C
:1008A000040290910502A0910602B0910702BC01DA
:1008B000CD010F900F900F900F90DF91CF91089581
:1008C0002F923F924F925F926F927F928F929F9260
:1008D000AF92BF92CF92DF92EF92FF920F931F934E
:1008E000CF93DF93CDB7DEB72D970FB6F894DEBF69
:1008F0000FBECDBF6A01790158019B01AC01609127
:1009000004027091050280910602909107020E94F4
:10091000CC068B018D879C878091AE039091AF03AD
:10092000A091B003B091B1038D839E83AF83B8874C
:1009300098014D855C85BC01CD010E946008209125
:10094000A2033091A3034091A4035091A5036983AE
:100950007A838B839C8369817A818B819C810E94BD
:10096000CD06F62FE72F462F572FBC014093A20349
:100970005093A3036093A4037093A5034090AA032C
:100980005090AB036090AC037090AD03A301920153
:10099000F983EA838B839C8369817A818B819C8133
:1009A0000E945B08181644F44092A2035092A303DD
:1009B0006092A4037092A5034090A6035090A703F1
:1009C0006090A8037090A903A30192016091A20313
:1009D0007091A3038091A4039091A5030E9439070D
:1009E00087FF08C04092A2035092A3036092A40321
:1009F0007092A5032091BA033091BB034091BC03D0
:100A00005091BD0309831A839D859B83AC85AC837C
:100A100069817A818B819C810E9460083B014C0135
:100A20002091B6033091B7034091B8035091B903B8
:100A30006091A2037091A3038091A4039091A503F8
:100A40000E9460081B012C0120919E0330919F039E
:100A50004091A0035091A10369817A818B819C818F
:100A60000E94CC062D813E814F81588569837A830F
:100A70008B839C8369817A818B819C810E943E0754
:100A80002091B2033091B3034091B4035091B50368
:100A900069837A838B839C8369817A818B819C8132
:100AA0000E9460086D8379878A879B87C301D40180
:100AB000F60180839183A283B383C101D201F70140
:100AC00080839183A283B383CB01AA85BB85F50183
:100AD00080839183A283B383C801AD85BC85809355
:100AE0009E0390939F03A093A003B093A103910151
:100AF000A20169827A828B829C8269817A818B8150
:100B00009C810E94CD062D8139854A855B8569834C
:100B10007A838B839C8369817A818B819C810E94FB
:100B2000CD0669837A838B839C8369817A818B81EB
:100B30009C812D960FB6F894DEBF0FBECDBFDF911E
:100B4000CF911F910F91FF90EF90DF90CF90BF90CA
:100B5000AF909F908F907F906F905F904F903F905D
:100B60002F900895CDB7DEB764970FB6F894DEBF27
:100B70000FBECDBF21E048E060E875E280E090E084
:100B80000E94A3010E9459020E94A70286E392E0FC
:100B90000E9403028EE38F938AEA8F938EE78F93EE
:100BA0008AEF8F9385EC8F938BE38F9380E88F93FD
:100BB0001F92A12C80E8B82E8BE3C82E85E4D82E96
:100BC000E12CF12C870129E838E848E85CE360E093
:100BD00070E080EC90E40E94F1038091000290911B
:100BE0000102A0910202B0910302BC01CD010E945A
:100BF000400441E070E060E080E190E00E94F50296
:100C000087E492E00E9403020FB6F894DEBF0FBEA5
:100C1000CDBF612C712C812C912C0E942C03882338
:100C200041F04AE952E062EC73E08EEB93E00E94FF
:100C30006A030E944904609300027093010280934A
:100C40000202909303028091C2039091C303A0918A
:100C5000C403B091C50319861A861B861C861D82A3
:100C60001E821F82188619821A821B821C828E01A4
:100C70000F5F1F4F9E012B5F3F4FAE01475F5F4FDE
:100C8000BC01CD010E9460047B018C0123EC35EF97
:100C900048EA5EE36D867E868F86988A6D857E85BE
:100CA0008F8598890E94CD06462E372E282E592EE4
:100CB000662E772E882E992EED86FE860F87188B4E
:100CC0006D857E858F8598890E94B007CB010E9433
:100CD0008D02A984BA84CB84DC842091C203309134
:100CE000C3034091C4035091C503809100029091C9
:100CF0000102A0910202B0910302898B9A8BAB8B07
:100D0000BC8B5F922F923F924F92E885EF93EF81D9
:100D1000EF93EE81EF93ED81EF93ED86FE860F87E3
:100D2000188BED84FE840F85188969897A898B89EF
:100D30009C890E94DF009FE7A2E4B0E19150A040AF
:100D4000B040E1F700C000000FB6F894DEBF0FBE60
:100D5000CDBF63CFA1E21A2EAA1BBB1BFD010DC0A4
:100D6000AA1FBB1FEE1FFF1FA217B307E407F5075B
:100D700020F0A21BB30BE40BF50B661F771F881F37
:100D8000991F1A9469F760957095809590959B01CD
:100D9000AC01BD01CF0108955058BB27AA270E947E
:100DA000E4060C9421080E94130838F00E941A08E7
:100DB00020F039F49F3F19F426F40C9410080EF437
:100DC000E095E7FB0C940A08E92F0E94320858F3DB
:100DD000BA17620773078407950720F079F4A6F520
:100DE0000C9454080EF4E0950B2EBA2FA02D0B0195
:100DF000B90190010C01CA01A0011124FF27591B60
:100E000099F0593F50F4503E68F11A16F040A22F65
:100E1000232F342F4427585FF3CF469537952795D6
:100E2000A795F0405395C9F77EF41F16BA0B620BD5
:100E3000730B840BBAF09150A1F0FF0FBB1F661F1C
:100E4000771F881FC2F70EC0BA0F621F731F841F5F
:100E500048F4879577956795B795F7959E3F08F085
:100E6000B0CF9395880F08F09927EE0F9795879547
:100E700008950E94E60708F481E008950E94520751
:100E80000C9421080E941A0858F00E94130840F0A0
:100E900029F45F3F29F00C940A0851110C9455086D
:100EA0000C9410080E94320868F39923B1F355237B
:100EB00091F3951B550BBB27AA276217730784076D
:100EC00038F09F5F5F4F220F331F441FAA1FA9F303
:100ED00035D00E2E3AF0E0E832D091505040E695F1
:100EE000001CCAF72BD0FE2F29D0660F771F881F52
:100EF000BB1F261737074807AB07B0E809F0BB0B45
:100F0000802DBF01FF2793585F4F3AF09E3F510558
:100F100078F00C940A080C9455085F3FE4F3983E6F
:100F2000D4F3869577956795B795F7959F5FC9F741
:100F3000880F911D9695879597F90895E1E0660FC2
:100F4000771F881FBB1F621773078407BA0720F03B
:100F5000621B730B840BBA0BEE1F88F7E0950895A4
:100F60000E94B7076894B1110C94550808950E9427
:100F70003A0888F09F5798F0B92F9927B751B0F0E9
:100F8000E1F0660F771F881F991F1AF0BA95C9F70D
:100F900014C0B13091F00E945408B1E008950C944F
:100FA0005408672F782F8827B85F39F0B93FCCF302
:100FB000869577956795B395D9F73EF4909580958A
:100FC000709561957F4F8F4F9F4F0895990F00083F
:100FD000550FAA0BE0E8FEEF16161706E807F9070B
:100FE000C0F012161306E407F50798F0621B730BA6
:100FF000840B950B39F40A2661F0232B242B252B27
:1010000021F408950A2609F4A140A6958FEF811DC9
:10101000811D089597F99F6780E870E060E008956A
:101020009FEF80EC089500240A9416161706180600
:101030000906089500240A941216130614060506DC
:101040000895092E0394000C11F4882352F0BB0F6D
:1010500040F4BF2B11F460FF04C06F5F7F4F8F4FD0
:101060009F4F089557FD9058440F551F59F05F3F0B
:1010700071F04795880F97FB991F61F09F3F79F0BA
:1010800087950895121613061406551FF2CF46953C
:10109000F1DF08C0161617061806991FF1CF8695BE
:1010A0007105610508940895E894BB2766277727A2
:1010B000CB0197F908950E94E60708F48FEF089591
:1010C0000E9473080C9421080E94130838F00E94B3
:1010D0001A0820F0952311F00C940A080C941008BB
:1010E00011240C9455080E94320870F3959FC1F3A7
:1010F000950F50E0551F629FF001729FBB27F00DC6
:10110000B11D639FAA27F00DB11DAA1F649F66271A
:10111000B00DA11D661F829F2227B00DA11D621F69
:10112000739FB00DA11D621F839FA00D611D221F23
:10113000749F3327A00D611D231F849F600D211D07
:10114000822F762F6A2F11249F5750409AF0F1F08A
:1011500088234AF0EE0FFF1FBB1F661F771F881FF3
:1011600091505040A9F79E3F510580F00C940A0819
:101170000C9455085F3FE4F3983ED4F38695779539
:101180006795B795F795E7959F5FC1F7FE2B880F99
:10119000911D9695879597F90895BB274A3031F4AC
:1011A000992322F4BDE2909581959F4F0C94D90824
:1011B000BB27FB015527AA27880F991FAA1FA41731
:1011C00010F0A41B83955051B9F7A05DAA3308F025
:1011D000A95DA193009779F7B111B1931192CB0159
:1011E0000C94390B0F931F93CF93DF93CDB7DEB7DA
:1011F0002E970FB6F894DEBF0FBECDBF0E891F89A4
:1012000086E08C831A8309838FEF9FE79E838D830B
:10121000AE01465E5F4F688D798DCE0101960E94CA
:1012200022092F813885020F131FF80110822E9694
:101230000FB6F894DEBF0FBECDBFDF91CF911F91E7
:101240000F9108952F923F924F925F926F927F92EB
:101250008F929F92AF92BF92CF92DF92EF92FF92C6
:101260000F931F93CF93DF93CDB7DEB72F970FB6B2
:10127000F894DEBF0FBECDBF7C013B018A01DC01CB
:1012800017961C921E92169713968C9181FFD8C1C7
:101290009AE0292EFE0131964F01D70113969C91B9
:1012A000F30193FD859193FF81913F01882309F418
:1012B00048C1853239F493FD859193FF81913F01B7
:1012C000853229F4B70190E00E94490BE6CFB12C9A
:1012D000412C512CBFE1B51538F08B3209F188F45F
:1012E000803201F1833221F157FC3AC020ED280F02
:1012F0002A3040F556FE1FC0B29C200D1124B22E9C
:1013000006C08D3291F0803379F7689450F8F3017C
:1013100093FD859193FF81913F018111DBCF20C027
:10132000689451F8689452F8F2CF689453F8EFCF6C
:10133000689454F8ECCF429C200D1124422E6894FE
:1013400055F8E5CF8E3229F456FCFBC0689456F868
:10135000DECF8C3619F4689457F8D9CF8836B9F2B5
:10136000982F9F7D95549330C0F08336A1F1833739
:10137000C1F1833509F05BC0D801CD90DD908D01BE
:101380006B2D70E056FC02C06FEF7FEFC6010E942C
:10139000230B5C01689457F80AC00C5F1F4FEFE302
:1013A000E983AA24A394B12C6401E89457F853FC70
:1013B00004C04A141B0409F018F5342CA114B1041C
:1013C00031F5332009F469CFB70180E290E00E9443
:1013D000490B3A94F6CFD8018C9189830E5F1F4F49
:1013E000E0CFF801C190D1908F016B2D70E056FCD9
:1013F00002C06FEF7FEFC6010E942E0B5C01D5CFBC
:10140000B70180E290E00E94490B4A94D2CFF601E6
:1014100057FC859157FE81916F01B70190E00E94C2
:10142000490B31103A94B1E0AB1AB108C7CF8436FA
:1014300019F0893609F074C0F80157FE6AC061914D
:101440007191819191918F01E52DEF76DE2E97FFBD
:1014500009C090958095709561957F4F8F4F9F4FF4
:101460006894D7F82AE030E0A4010E94790BC82ED6
:10147000C818AC2C5D2CD6FE0CC0E89450F8CB14E8
:1014800040F4D4FE05C0D2FC03C05D2D5E7E552E17
:10149000AB2C54FEADC0FE01EC0DF11D80818033FC
:1014A00009F09FC0652D697E562E752D7870372EF8
:1014B00053FCADC050FEA7C0BC2CA41418F44C0CB7
:1014C000B42CBA1854FEA9C0B70180E390E00E9482
:1014D000490B52FE09C088E790E051FE02C088E542
:1014E00090E0B7010E94490BCB1408F4A2C0CA9443
:1014F000D12C8FEFC81AD80AC80CD91CD6018E91EE
:101500006D01B70190E00E94490B8C149D04B1F766
:1015100058CF61917191072E000C880B990B93CFD6
:10152000D52CE894D4F82AE030E08537E1F1F52DA8
:10153000F97FDF2E803751F100F5883551F18F3674
:1015400081F1F701868197812F960FB6F894DEBF5F
:101550000FBECDBFDF91CF911F910F91FF90EF9004
:10156000DF90CF90BF90AF909F908F907F906F90C3
:101570005F904F903F902F900895883711F7D4FED9
:1015800002C06894D2F820E130E00DC06894D4F82D
:10159000F6CF54FE03C02F2F2660D22E20E132E07A
:1015A00002C028E030E0F801D7FE15C0419151910A
:1015B000619171914C875D876E877F878F01A40150
:1015C0006C857D858E859F850E94790BC82EC818F5
:1015D000E894D7F84ECF81919191AC0170E060E032
:1015E000E9CF52FC02C0A39460CFA394A3945DCF33
:1015F000852D867809F459CFF6CFB70180E290E0C7
:101600000E94490BA394A414C0F3312C5BCF342C5B
:101610003A18A41408F456CFF8CF852D867809F42B
:1016200063CF8BE251FE80E257FC8DE2B70190E080
:1016300059CFB70180E390E00E94490BBA9454CF90
:101640008FEF9FEF81CFFC0105906150704001103A
:10165000D8F7809590958E0F9F1F0895FC016150DB
:10166000704001900110D8F7809590958E0F9F1FC4
:101670000895DC01FC01672F71917723E1F7329720
:1016800004C07C916D9370836291AE17BF07C8F35D
:1016900008950F931F93CF93DF93182F092FEB011A
:1016A0008B8181FD09C01FEF0FEF812F902FDF91FC
:1016B000CF911F910F91089582FF14C02E813F8119
:1016C0008C819D81281739073CF4E881F981CF018D
:1016D00001969983888310838E819F8101969F83D1
:1016E0008E83E3CFE885F985812F1995892BA1F3A6
:1016F000DACFFA01AA27283051F1203181F1E8949C
:101700006F936E7F6E5F7F4F8F4F9F4FAF4FB1E0F4
:101710003ED0B4E03CD0670F781F891F9A1FA11DEF
:10172000680F791F8A1F911DA11D6A0F711D811DF0
:10173000911DA11D20D009F468943F912AE0269FB5
:1017400011243019305D3193DEF6CF010895462F14
:101750004770405D4193B3E00FD0C9F7F6CF462FF5
:101760004F70405D4A3318F0495D31FD405241935E
:1017700002D0A9F7EACFB4E0A6959795879577951B
:101780006795BA95C9F700976105710508959B01A2
:10179000AC010A2E06945795479537952795BA952B
:1017A000C9F7620F731F841F951FA01D0895F89439
:0217B000FFCF69
:1017B200000048420000F04148656174696E67208C
:1017C2004F46460048656174696E67204F4E004976
:1017D2006E707574206F7574206F6620626F756EFF
:1017E200647321002C005374617274657220534338
:1017F2004433302E2E2E00536574706F696E742C34
:101802002054656D702C20436F6E74726F6C536937
:10181200676E616C2C2050726F706F7274696F6E9C
:10182200616C506172742C20496E74656772616CD0
:10183200506172742C2054696D650A0D0054656DF7
:0A184200703A200025642E25640092
:00000001FF
